:100000000C949B070C94B8070C94B8070C94B80791
:100010000C94B8070C94B8070C94B8070C94B80764
:100020000C94B8070C94B8070C946E1C0C94B01B7D
:100030000C94112A0C94B8070C94B8070C94B807C8
:100040000C94B8070C94B8070C94B8070C94B80734
:100050000C94B8070C94781D0C94B8070C94B8074E
:100060000C94B8070C94B8070C94B8070C94B80714
:100070000C94B8070C94B8070C94B8070C94B80704
:100080000C94B8070C94B8070C94B8070C94B807F4
:100090000C94B8070C94B8070C94B8070C94B807E4
:1000A0000C94B8070C94B8070C94B8070E0B130BFC
:1000B0001D0B110B160B1B0B190BC60CC90CCC0C12
:1000C000CF0CD20CD50CD80C1B0EA10EA60EAB0E6D
:1000D000B00EB50EBA0EBF0EC40EC90ECE0E290E4E
:1000E0002B0ED50ED70EAD11AD11AD11AD11AD1159
:1000F000AD11A00FA00FCF0FCF0F4A1068108B11BA
:100100008B116D10FB100C110C11C319EA19981BFF
:10011000EA19981B361A591A981B4E1B5E1B0000D1
:10012000FF0000FF0000FF0000FF0000FF0000FFD5
:100130000000FF0000FF0000FF0000FF0000FF00C4
:1001400000FF0000FF0000FF0000FF0000FF0000B4
:10015000FF0000FF0000FF0000FF0000FF0000FFA5
:100160000000FF0000FF0000FF0000FF0000FF0094
:1001700000FF0000FF0000FF0000FF0000FF000084
:10018000FF0000FF0000FF0000FF0000FF0000FF75
:100190000000FF0000FF0000FF0000FF0000FF0064
:1001A00000FF0000FF0000FF0000FF0000FF000054
:1001B000FF0000FF0000FF0000FF0000FF0000FF45
:1001C0000000FF0000FF0000FF0000FF0000FF290B
:1001D000FFFF4AFFFF4AFFFF29FFFF0000FF00006B
:1001E000FF60DACC60DACC0000FF0000FF0000FF07
:1001F0000000FF0000FF0000FF0000FF0000FF0004
:1002000000FF0000FF0000FF8BE4D38BE4D3D9C0D4
:10021000C8D9C0C80000FF60DACC60DACC0000FFAB
:100220000000FF0000FF00F5F500F5F50000FF00FD
:1002300000FF0000FF0000FF0000FF0000FF0000C3
:1002400000000000000000000000000000000000AE
:10025000000000000000000000000000000000009E
:10026000000000000000000000000000000000008E
:10027000000000000000000000000000000000007E
:10028000000000000000000000000000000000006E
:10029000000000000000000000000000000000005E
:1002A000000000000000000000000000000000004E
:1002B000000000000000000000000000000000003E
:1002C000000000000000000000000000000000002E
:1002D000000000000000000000000000000000001E
:1002E000000000000000000000000000000000000E
:1002F00000000000000000000000000000000000FE
:1003000000000000000000000000000000000000ED
:1003100000000000000000000000000000000000DD
:1003200000000000000000000000000000000000CD
:1003300000000000000000000000000000000000BD
:1003400000000000000000000000000000000000AD
:10035000000000000000000000000000000000009D
:10036000FF0000FF0000FF0000FF0000FF0000FF93
:100370000000FF0000FF0000FF0000FF0000FF0082
:1003800000FF0000FF0000FF0000FF0000FF000072
:10039000FF0000FF0000FF0000FF0000FF0000FF63
:1003A0000000FF0000FF0000FF0000FF0000FF0052
:1003B00000FF0000FF0000FF0000FF0000FF000042
:1003C000FF0000FF0000FF0000FF0000FF0000FF33
:1003D0000000FF0000FF0000FF0000FF0000FF0022
:1003E00000FF0000FF0000FF0000FF0000FF000012
:1003F000FF0000FF0000FF0000FF0000FF0000FF03
:100400000000FF0000FF0000FF0000FF0000FF29C8
:10041000FFFF4AFFFF4AFFFF29FFFF0000FF000028
:10042000FF60DACC60DACC0000FF0000FF0000FFC4
:100430000000FF0000FF0000FF0000FF0000FF00C1
:1004400000FF0000FF0000FF8BE4D38BE4D3D9C092
:10045000C8D9C0C80000FF60DACC60DACC0000FF69
:100460000000FF0000FF00F5F500F5F50000FF00BB
:1004700000FF0000FF0000FF0000FF0000FF000081
:10048000000000000000000000000000000000006C
:10049000000000000000000000000000000000005C
:1004A000000000000000000000000000000000004C
:1004B000000000000000000000000000000000003C
:1004C000000000000000000000000000000000002C
:1004D000000000000000000000000000000000001C
:1004E000000000000000000000000000000000000C
:1004F00000000000000000000000000000000000FC
:1005000000000000000000000000000000000000EB
:100510000000000000000000000000000000FFFFDD
:100520005FFFFF000000000000000000000000006E
:1005300000000000000000FF0000000000000000BC
:10054000000000FF0000FF0000FF000000000000AE
:10055000000000000000000000000000000000009B
:1005600000000000000000008BE4D300000000F554
:10057000F50000008BD8CF8BDAD100F5F500F5F54A
:1005800000F5F50000000000000000000000000081
:100590000000000000000000000000000000050155
:1005A0000980A101850319012AB700150126B700AA
:1005B000950175108100C0050C0901A10185041980
:1005C000012AA002150126A002950175108100C024
:1005D00005010906A1018506050719E029E71500AF
:1005E00025019508750181020507190029EF1500FD
:1005F000250195F075018102050819012905950568
:1006000075019102950175039101C005010902A1CF
:10061000010901A100050919012908150025019505
:1006200008750181020501093009311581257F9581
:10063000027508810609381581257F9501750881A5
:1006400006050C0A38021581257F9501750881067B
:10065000C0C00660FF0961A1010962150026FF0004
:100660009520750881020963150026FF0095207505
:10067000089102C005010906A101050719E029E753
:100680001500250195087501810295017508810104
:100690000507190029FF150026FF0095067508813A
:1006A0000005081901290515002501950575019119
:1006B00002950175039101C009027400040100A0B4
:1006C000FA090400000103010100092111010001E0
:1006D0002244000705810308000109040100020308
:1006E00000000009211101000122220007058303F7
:1006F0002000010705040320000109040200010392
:1007000001020009211101000122470007058203AF
:100710000800010904030001030000000921110180
:100720000001226D0007058503200001120100026F
:100730000000000897327649010001020001200301
:100740004500720067006F0044006F0078002000D1
:1007500045005A00200047006C006F007700000041
:1007600028035A0053004100200054006500630034
:1007700068006E006F006C006F0067007900200059
:100780004C0061006200730000000403090435009E
:100790002B002A00E100E30000001E00140004000A
:1007A0001D210F0145001F001A0016001B00E10467
:1007B00034002000080007000600E000215221005C
:1007C0001500090019002C004A00220017000A0039
:1007D0000500000065243C02310300004A000000CF
:1007E00000573C00310700004D000000E2002300EC
:1007F0001C000B00110000002921240018000D002E
:10080000100052004B0025000C000E003600500076
:100810002C00260012000F0037004F002D0027008B
:100820001300330038315100170131004C0028000B
:10083000E5004C11000029000D062A012252060194
:1008400000001E002F000404160A130301001F00FD
:10085000300016011B01235201002000360226023F
:100860002F022B05010021003702270230022B083E
:10087000037E220014010A0705010000AE000901F1
:10088000190100000601000007520B011C010000C5
:100890001D010000AC002300240231022E020000E2
:1008A000AB0024004A0452002E0001000100250084
:1008B00036045000500101000100260036064F00AA
:1008C0004F0101002D0227004D04510038010100A5
:1008D000010044000E034C010C0F01000000010058
:1008E00001002A040100010000001E0201000406AC
:1008F0000100010001001F02060A160350051A013B
:10090000340220020C0A01004F05170301002102E6
:1009100001000100010001000100220214030C018A
:1009200005030000010001000100000001000000BB
:10093000010001000100000001000000010023028D
:1009400001002B010F0600000100240252040F04D5
:100950004A064B00010025022F01500250075004A7
:100960000100010030014F024F074F040100010058
:10097000510412044D064E00010001004C07010015
:10098000450001000000010001000100010001001C
:1009900000003A00010001000100010001003B00DD
:1009A000010001000100010001003C000100010004
:1009B0000100010001003D000100010001000100F3
:1009C00001003E00010001000100000001000100E3
:1009D0000100000001000000010001000100000012
:1009E0000100000001003F000100010001000000C3
:1009F0000100400001000100010001000100410070
:100A0000010001000100010001004200010001009D
:100A1000010001000100430001000100010001008C
:100A200001000100010001000100010000000100BF
:100A30000100010001002A04000001000100010082
:100A40001D2801000100010001000100010001005A
:100A50000100010001000100010001002552010018
:100A6000010001000100010001000100010001007E
:100A7000010000000100500401000000010000001E
:100A800000524F04010000000100000001000100BD
:100A9000010001000100000001000100010001004F
:100AA000010001000100010001000100010001003E
:100AB000010001000100010001000100010001002E
:100AC00001000100383801000100010001000100AF
:100AD00001004C040000290001002A04E200060184
:100AE0000000010036022002220A130A0100010060
:100AF000370216081B082652010001002F022602A9
:100B00002F002B08010001003002270230003508B9
:100B10000100010031023500350200000100090822
:100B200019080000060800000100090A1D0A00005B
:100B30001D080000010001005200510024020000C5
:100B400001000100240052005200010001000100D8
:100B500025005000500437000100010026004F001E
:100B60004F042700010001002502510051002E0012
:100B70000100440045004C04010001000000010098
:100B8000010001000100010000003A000100010025
:100B90000100010001003B00010001000100010013
:100BA00001003C00010001000100010001003D00C6
:100BB000010001000100010001003E0001000100F0
:100BC0000100000001000100010000000100000020
:100BD00001000100010000000100000001003F00D1
:100BE00001000100010000000100400001000100BF
:100BF00001000100010041000100010001000100AD
:100C00000100420001000100010001000100430059
:100C100001000100010001000100010001000100CC
:100C200001000100000029000100E1000600E200CF
:100C300000000157000001001D000A0001000257DA
:100C4000010001000100E00008000357000001005E
:100C500001001900140004570100010001002C00DC
:100C600001000557010001000100000001002B04F4
:100C70004C000000010000000052010001000000D3
:100C800001000000085201003E00010001000000C8
:100C9000010001003F00010001000100010001000E
:100CA0000100010050000100D100010001005200CC
:100CB0005100010029000100010001004F00010066
:100CC0002B040100010001000100010000000100EF
:100CD000010001000100E00000000100010001002E
:100CE00001000100010001000100010001000100FC
:100CF00001000100010001000100010001000100EC
:100D000001000100010001000100010001000100DB
:100D100001000000010001000100000001000000CE
:100D200001000100010000000100000001000100BD
:100D300001000100010000000100010001000100AC
:100D4000010001000100010001000100010001009B
:100D5000010001000100010001000100010001008B
:100D6000010001000100010001000100010001007B
:100D700001000100000000443454007464840055F4
:100D800045650085759500362646006656760096C0
:100D900086A60037274700776787003828480088ED
:100DA00078980039294900695979009989A9003A48
:100DB0002A4A006A5A7A003B2B4B006B5B7B004C43
:100DC0003C5C007C6C8C005D4D6D008D7D9D003E1B
:100DD0002E4E006E5E7E01443454017464840155CD
:100DE000456501857595013626460166567601965C
:100DF00086A6013727470177678701382848018889
:100E000078980139294901695979019989A9013AE3
:100E10002A4A016A5A7A013B2B4B016B5B7B014CDE
:100E20003C5C017C6C8C015D4D6D018D7D9D013EB6
:100E30002E4E016E5E7E00010101010101010101E2
:100E4000020202020202020202030303030303037B
:100E50000304040404040404050505050506060648
:100E60000606070707070708080808090909090A05
:100E70000A0A0B0B0B0C0C0C0D0D0D0E0E0E0F0FAA
:100E80000F10101111111212131314141515161638
:100E90001717181819191A1A1B1B1C1D1D1E1E1FA7
:100EA0002020212222232424252626272829292AF6
:100EB0002B2C2D2D2E2F303132323334353637381E
:100EC000393A3B3C3D3E3F4041424344454647481A
:100ED000494A4C4D4E4F50515354555658595A5BF0
:100EE0005D5E5F616264656668696B6C6D6F707290
:100EF000737577787A7B7D7E8082838587888A8CFC
:100F00008E8F91939596989A9C9EA0A2A3A5A7A92F
:100F1000ABADAFB1B3B5B7BABCBEC0C2C4C6C9CB26
:100F2000CDCFD1D4D6D8DBDDDFE2E4E7E9EBEEF0DC
:100F3000F3F5F8FAFDFF11241FBECFEFDAE0DEBFB4
:100F4000CDBF12E0A0E0B1E0E0E6F4E702C005901A
:100F50000D92A23CB107D9F726E0A2ECB2E001C0A5
:100F60001D92A834B207E1F70E9402240C942E3A95
:100F70000C9400009C013A9521153F4130F5BC01CD
:100F800066277270AC01442754709C012227387088
:100F900094FF0FC090FF02C080E101C080E0672B8A
:100FA00009F08062452B09F08064232B79F080687A
:100FB0000895892F8170672B09F08260452B09F015
:100FC0008460232B19F08860089580E00895FC0167
:100FD0008281813039F4958192FD12C090FF10C05A
:100FE00082E00895823039F4858182FD06C080FD5B
:100FF00006C083E0089586E0089585E0089584E0C2
:1010000008958FE39CE90197F1F700C0000010926A
:10101000C6020895CF93DF93EC010E94002FCE010A
:10102000805E9109089710F0209731F4CE010E945C
:10103000BA070E94172E05C0CE010E94BA070E946F
:10104000062EDF91CF9108958FE39CE90197F1F788
:1010500000C000008091D002833029F0853031F04B
:10106000813041F403C087E290E002C082E290E068
:101070000E940A081092D00208958FE39CE901971C
:10108000F1F700C000008091CE02833029F0853056
:1010900031F0813041F403C086E290E002C081E289
:1010A00090E00E940A081092CE0208958FE39CE916
:1010B0000197F1F700C000008091CC02833029F045
:1010C000853031F0813041F403C085E290E002C008
:1010D00080E290E00E940A081092CC0208958FE30B
:1010E0009CE90197F1F700C000008091CA028330AB
:1010F00029F0853031F0813041F403C084E290E082
:1011000002C08FE190E00E940A081092CA0208957E
:101110008FE39CE90197F1F700C000008091C802BD
:10112000833029F0853031F0813041F403C083E20F
:1011300090E002C08EE190E00E940A081092C8027E
:101140000895CF93DF93EC01805E9109089710F02A
:10115000209731F4CE010E94BA070E941E2E05C0CE
:10116000CE010E94BA070E940D2E8C2F0E94642F80
:10117000DF91CF9108950F931F93CF93DF938C014D
:10118000C99719F0C0E0D0E002C0C0E5D0E0C801C6
:101190000E94A108209741F08FE99FE00197F1F7A5
:1011A00000C000002197F6CFC8010E940A08DF9115
:1011B000CF911F910F910895CF93DF93EC018A8116
:1011C000833061F482E290E00E94BB0882E290E00A
:1011D0000E94BB0882E290E00E94BB088A818430B2
:1011E00020F082E290E00E94BB08DF91CF91089549
:1011F000CF93DF93EC018A81833061F481E290E048
:101200000E94BB0881E290E00E94BB0881E290E06E
:101210000E94BB088A81843020F081E290E00E9425
:10122000BB08DF91CF910895CF93DF93EC018A81C2
:10123000833061F480E290E00E94BB0880E290E09D
:101240000E94BB0880E290E00E94BB088A81843043
:1012500020F080E290E00E94BB08DF91CF910895DA
:10126000CF93DF93EC018A81833061F48FE190E0CA
:101270000E94BB088FE190E00E94BB088FE190E0E4
:101280000E94BB088A81843020F08FE190E00E94A8
:10129000BB08DF91CF910895CF93DF93EC018A8152
:1012A000833061F48EE190E00E94BB088EE190E013
:1012B0000E94BB088EE190E00E94BB088A818430C6
:1012C00020F08EE190E00E94BB08DF91CF9108955D
:1012D0000E94E7078093D002833029F0853031F0F7
:1012E000813061F407C087E290E006C082E290E0BE
:1012F0000E94BB0882E290E00E94A10808950E942B
:10130000E7078093CE02833029F0853031F08130B9
:1013100061F407C086E290E006C081E290E00E949E
:10132000BB0881E290E00E94A10808950E94E707AF
:101330008093CC02833029F0853031F0813061F424
:1013400007C085E290E006C080E290E00E94BB0802
:1013500080E290E00E94A10808950E94E707809330
:10136000CA02833029F0853031F0813061F407C042
:1013700084E290E006C08FE190E00E94BB088FE11C
:1013800090E00E94A10808950E94E7078093C80298
:10139000833029F0853031F0813061F407C083E279
:1013A00090E006C08EE190E00E94BB088EE190E0E4
:1013B0000E94A10808950E94E7078093C602833027
:1013C00029F0853031F0813041F403C080E890E0AD
:1013D00002C080E190E00E94682D0895292F3327F4
:1013E0002115310519F0C90148E001C040E09C0118
:1013F00064E0369527956A95E1F72115310511F0DE
:101400004C5FC9019C013695279536952795211586
:10141000310511F04E5FC9019C0136952795232BAC
:1014200009F04F5F842F0895A6E0B0E0EAE1FAE00A
:101430000C94C13626E0FC01DE01119601900D925C
:101440002A95E1F7FC01258189819A81222359F0AF
:10145000662349F00E94C02C182F682F89819A8139
:101460000E94342D03C00E94012D182F69817A81BA
:10147000812F0E94D21E2696E3E00C94DD36A4E371
:10148000B0E0E5E4FAE00C94C1364FA758AB69AB85
:101490007AAB8BAB9CAB91111092F105CE01889683
:1014A00027E0DC011D922A95E9F726E0FE01BF96B0
:1014B000DC0101900D922A95E1F72CA52223C1F0C1
:1014C00061E00E94140A80913706882389F08DA577
:1014D000811102C087E001C086E0898388A58A83E4
:1014E00089A58B838EEF8C83CE0101960E941334E5
:1014F00087E0FE01B896DE01919601900D928A95E3
:10150000E1F7CE0181960E947E2181112CC087E0F7
:10151000FE01B196DE01119601900D928A95E1F7D8
:101520006DA1662301F12091F40330E0C901019619
:101530008770992740912D0450E08417950761F139
:101540006D8397E0929FD001939FB00D1124AB5013
:10155000BC4FFE01319601900D929A95E1F7809370
:10156000F4030E941B2117E080912D049091F40355
:10157000891709F1189FC00111248B509C4F0E94BC
:101580007E218823C1F080912D0490E00196877020
:10159000992780932D04E8CF10929F030E94D92DA4
:1015A0001092F40310922D04EDEEF3E087E0DF01DA
:1015B0001D928A95E9F7E496E3E00C94DD361092EB
:1015C0009F030E94D92D2FEF84E39CE0215080409F
:1015D0009040E1F700C000009AE088E10FB6F8946F
:1015E000A895809360000FBE90936000FFCFCF93CB
:1015F000DF93EC010E94EE0956985E9825982D988D
:1016000026982E9827982F9890E0FC013197E73084
:10161000F105A8F4EA5AFF4F0C94FA38259A2D9A4E
:101620000EC0259A2D9A269A2E9A09C0259A2D9A8F
:1016300004C0259A2D9A269A2E9A279A2F9ACE017F
:10164000DF91CF910895A0E0B0E0E9E2FBE00C94D7
:10165000B33620E9289F7001299FF00C1124C0E0C7
:10166000D0E000E010E067018FEFC81AD80A5701F8
:1016700082E0A80EB11CF701EC0FFD1FE25EFE4FE9
:101680006491F601EC0FFD1FE25EFE4F7491F501CF
:10169000EC0FFD1FE25EFE4F8491611107C07111D6
:1016A00005C0811103C020E040E03CC00E94BE3272
:1016B000962E372E882E60913F0670E080E090E0F5
:1016C0000E94EB3720E030E04FE753E40E944A37B6
:1016D0002B013C01682D70E080E090E00E94ED3726
:1016E000A30192010E9479380E94BC37862E692D91
:1016F00070E080E090E00E94ED37A30192010E942B
:1017000079380E94BC37962E632D70E080E090E01F
:101710000E94ED37A30192010E9479380E94BC37E4
:10172000282D492DC8010E9423120F5F1F4F2396B9
:10173000C039D10509F09FCFCDB7DEB7E1E10C94F8
:10174000CF3680E290E09093100180930F0180915A
:10175000C40281110EC00E94AD3581E08093C402A5
:101760002FEF83ED90E3215080409040E1F700C0DF
:10177000000060E570E080E40E94B33590931001B2
:1017800080930F01892B09F04EC060E570E080E086
:101790000E9426369093100180930F01892B09F047
:1017A00042C060E570E080E00E9426369093100110
:1017B00080930F01892BB9F560E570E08FE30E94FB
:1017C00026369093100180930F01892B61F50E94BA
:1017D0009A3660E570E080E40E94B3359093100182
:1017E00080930F01892BF9F460E570E08CE00E9492
:1017F00026369093100180930F01892BA1F460E5A8
:1018000070E080E00E9426369093100180930F01D3
:10181000892B49F460E570E08FE30E9426369093AF
:10182000100180930F010E949A3680910F01089554
:10183000CF93DF9356985E9825982D9826982E98EA
:1018400027982F98C8E8D0E08FEF90E0998388839D
:10185000AAE8B0E011969C938E93ECE8F0E09183B7
:101860008083259A2D9A2FEF80E792E021508040C7
:101870009040E1F700C00000269A2E9A2FEF80E7F3
:1018800092E0215080409040E1F700C00000279A8C
:101890002F9A2FEF80E792E0215080409040E1F7AF
:1018A00000C0000025982D982FEF80E792E021508E
:1018B00080409040E1F700C0000026982E982FEF5E
:1018C00080E792E0215080409040E1F700C00000A6
:1018D00027982F988091900487702FEF829FC001E6
:1018E0001124959587959595879599279983888350
:1018F00011969C938E939183808356985E98259839
:101900002D9826982E9827982F98DF91CF9108959B
:10191000CF93E82F873080F580910F0190911001CF
:10192000892B09F047C0CE2F60E570E080E40E946B
:10193000B3359093100180930F01892BD1F460E5AA
:1019400070E082E10E9426369093100180930F018F
:10195000892B79F481E090E001C0880FCA95EAF7FD
:1019600060E570E080950E94263690931001809388
:101970000F010E949A361EC090E0FC013797E730B5
:10198000F105C0F4E35AFF4F0C94FA38209A2898D6
:1019900011C0219A29980EC0229A2A980BC0239A26
:1019A0002B9808C0529A5A9805C0539A5B9802C067
:1019B0003E9A4698CF910895209828982198299882
:1019C00022982A9823982B9852985A9853985B9863
:1019D0003E9846980895CF93873040F580910F0147
:1019E00090911001892B59F560E570E081E40E9427
:1019F000B3359093100180930F01892B11F0C0E053
:101A000011C080E590E00E94553697FF05C0909385
:101A1000100180930F01F3CFC82FC09510921001D1
:101A200010920F010E949A368C2F0AC09FB18FB17D
:101A3000807F869586959370892B809501C080E084
:101A4000CF9108958098889A8198899A84988C9AE1
:101A500085988D9A86988E9A87988F9A0895A0E097
:101A6000B0E0E5E3FDE00C94BB36FC0124812223C9
:101A700009F499C47C0161E00E94140AEC01F701A9
:101A80008581882399F18091F2059091F305009763
:101A900009F473C4C817D90709F46FC4992754E02F
:101AA000880F991F5A95E1F7FC01EA5EFE4F2081ED
:101AB000246020838F5E9E4FFC01D183C0830E94EF
:101AC0000D2B1092F10561E0C7010E94140AEC0190
:101AD0008115FEE79F0771F081302EE7920709F428
:101AE0004BC08032984709F08AC06AC0C115FEE732
:101AF000DF07F1F5F7018581882309F44EC4909141
:101B0000900481E0890F8770987F853020F4892BBD
:101B10008093900402C09093900480919004877009
:101B2000FFEF8F9FC0011124959587959595879517
:101B30009927909389008093880090938B008093DD
:101B40008A0090938D0080938C0040919004509176
:101B5000910460919204709193048FE090E00E9450
:101B6000383780918E0490918F040E94F70A15C433
:101B7000C1302EE7D207F1F5F7018581882309F4FA
:101B80000FC48091900483FB222720F991E09227D3
:101B900090FB83F980939004992329F040E060E062
:101BA00080E00E9420124091900450919104609135
:101BB0009204709193048FE090E00E943837F0C354
:101BC000F7018581882309F4C8C39091410680916B
:101BD0003B069F3F59F410924106816080933B067B
:101BE00040E060E080E00E942012B7C39FEF909336
:101BF00041062BC0C03248E7D40709F4AEC3F70151
:101C00002581C230FEE7DF0729F0C3304EE7D40755
:101C100029F025C0222309F4A0C31BC0222309F404
:101C20009CC381E00E94AE2B40E86FEF86E590E018
:101C30000E94D93392C390913C0681E0892780931A
:101C40003C061092780180913B06816080933B06B0
:101C500084C381E001C085E00E94AE2B7EC3CE012B
:101C600097558F3F910511F008F059C06E01DD24A2
:101C7000C60134E0880F991F3A95E1F78C010F5E99
:101C80001E4FFC01EA5EFE4F6F01808120FB80F950
:101C90008083F7018581882341F10E94B91D9093CB
:101CA000880480938704F80182818F5F82839091FA
:101CB000F10580919F03892B838380914F04848356
:101CC0004681578166857785C8010E94EE2AF60114
:101CD000808181FF03C090E080E002C09C2F8D2FA7
:101CE0009093F2058093F3051AC0F8014485558559
:101CF00066857785C8010E94EE2AF601808181FF02
:101D00000EC0C8010E94F42A8091F2059091F3055B
:101D10008C179D0721F41092F3051092F205F7013C
:101D20008581811146C080919F038272FE01E0523D
:101D3000F847E531F10508F0AEC0EC59FF4F0C94BF
:101D4000FA384CEF59E266E07AE22CC046E05AE2FB
:101D50006CEF79E227C048EE59E262EF79E222C0E7
:101D600042EF59E268EE79E21DC04EEC59E26BEDAC
:101D700079E218C04BED59E26EEC79E213C044EB06
:101D800059E261EC79E20EC041EC59E264EB79E290
:101D900009C040EB57E26EEB77E204C04EEB57E22E
:101DA00060EB77E20E94482BD8C28DE055CF82E1EC
:101DB00053CFC330FCE7DF0709F459C048F4C1151D
:101DC0004CE7D407A9F0C130DC4709F456C063C022
:101DD000CB358CE7D80709F45BC0CC359CE7D90735
:101DE00009F44EC0CA35DC4709F055C081E051C046
:101DF00010929F030E94D92DFFEF24E34CE0F15095
:101E000020404040E1F700C00000F89481E080935A
:101E1000E00080E28093D8001092C9008FE19EE438
:101E20000197F1F700C000001DBA109268001CBCB9
:101E300010BE1FBA10927A0010926E0010926F00BE
:101E400010927100109272001092C9001092BC00A2
:101E500014B817B81AB81DB810BA1092BC0015B84B
:101E600018B81BB81EB811BA0C94003F76C26FEFB9
:101E70007FEF80E090E00E9444370E94DF0A6DC24D
:101E800080919D0382FB882780F991E0892701C01A
:101E900080E00E940421F7018581C081D1818823DF
:101EA00049F0CE010E94C02C182F682FCE010E944D
:101EB000342D04C0CE010E94012D182FBE01812FA8
:101EC0000E94D21E0E94EF1ED82FC92FC82EF701E4
:101ED0001581068102950F7080912E04877001F1A3
:101EE0001123F1F0892F807F803469F080E28D0F1B
:101EF0008830B0F0892F807E803229F4F1E0FD1720
:101F000078F4002369F080919D0382FF09C082E08C
:101F10000E94ED2080912E048770DD24D3948111DE
:101F2000D12CBC2EB2948FE0B8228B2D90E08C3057
:101F3000910508F0F0C1FC01E758FF4F0C94FA3806
:101F40008C2F807FCF70882311F0C295C07F112322
:101F5000B9F0CC2309F4CDC180E28D0F883010F0A8
:101F6000C11006C090919F03C92BC0939F0305C069
:101F70009091F105C92BC093F1050E949820B9C139
:101F80008D2F0E94002FCC2309F4C5C1D05E8C2F69
:101F9000D83068F1CC2059F10E948A202AC08C2FB9
:101FA000807FCF70803211F0C295C07FCC2029F0A5
:101FB00021E0C21609F44CC054C080919D0382FDFB
:101FC0001BC0112369F0CC2339F090919F03C92BDA
:101FD000C0939F030E94982080E00E94642F9BC1C1
:101FE00080E00E94002FCC2309F495C18C2F0E9421
:101FF00091200E9498208FC1112381F00023A9F124
:10200000013009F088C190914F048C2F8923C817A3
:1020100009F481C1C92BC0934F047DC101117BC15B
:102020008C2F0E94172E80914F049C2F982329F00B
:102030009C2F9095892380934F048091D1029C2FEF
:10204000982309F468C1C0958C238093D10263C1A1
:10205000112321F0023008F05EC107C001115BC1FD
:1020600015C0112331F0011144C18C2F0E941E2E86
:1020700052C1002359F0D93309F04AC14FEF57EE4E
:1020800083E0415050408040E1F740C18C2F0E94D6
:10209000172E41C18C2F86958695837019F081305B
:1020A00061F039C1112321F08D2F9C2F937002C054
:1020B00080E090E00E94BC2A34C1112321F08D2FD2
:1020C0009C2F937002C080E090E00E94972A29C163
:1020D000612F8D2F0E94282E24C18C2F837009F030
:1020E00041C011111CC12D2F229526952770220F5A
:1020F000220F8D2F8F7090E0022E02C0880F991F43
:102100000A94E2F7D4FF0BC04FE050E002C0440F46
:10211000551F2A95E2F79A012095309502C020E0DC
:1021200030E0C695C695C370C23099F068F440910E
:10213000500450915104C13029F0822B932B8423F9
:10214000952304C0842B952B822B932B0E94B12DB9
:10215000E6C0822B932B20915004309151048227AA
:102160009327F4CF112319F08C2F817001C086952D
:10217000882309F4D4C02D2F229526952770220F8D
:10218000220F8D2F8F7090E0022E02C0880F991FB2
:102190000A94E2F7D4FF0BC04FE050E002C0440FB6
:1021A000551F2A95E2F79A012095309502C020E04C
:1021B00030E0C695C695C370C23079F0B8F440914E
:1021C0008E0450918F04C13029F0822B932B8423ED
:1021D00095230EC0842B952B09C0822B932B209125
:1021E0008E0430918F048227932702C0822B932B79
:1021F0000E94682D94C0CF70112339F08C2F0E945B
:10220000A12D8D2F0E941E2E8AC08D2F0E94172E69
:102210008C2F0E948F2D83C08D2F92EFC91681F1D4
:102220009C1538F0E0EFCE1659F0F1EFCF1619F10A
:102230005CC023EFC21659F144EFC416C1F055C07B
:10224000112389F0011167C0CF7181E090E002C0D5
:10225000880F991FCA95E2F720918E0430918F0460
:102260008227932721C0023008F055C0EDCF80911E
:102270009D0382FD1CC0112329F08C2F8F7129C072
:102280001123D9F38C2F8F710E948F2D44C01123FD
:1022900049F0CF7181E090E002C0880F991FCA9584
:1022A000E2F702C080E090E00E94682D34C0112364
:1022B00099F0CF718C2F0E94A12D80919D0382FFF8
:1022C00007C058E0C59FC0011124836080932E048D
:1022D0008C2F0E94A12D1FC081E00E94ED200230B2
:1022E000D0F082E00E94ED2016C0112321F00023DF
:1022F00021F28D2F72CE002329F2893349F48FEF1A
:1023000097EEE3E081509040E040E1F700C000002C
:102310008D2F0E94002F88EF8B0D843010F40E94C7
:10232000E12ADD20A9F080912E0480FD11C0F70183
:1023300015828695869586950E94A12DC7010E94DB
:102340002F0D80912E048695869586950E948F2D5F
:1023500060E0C7010E94140A26C080912E04877095
:1023600011F1F70185818823F1F080919D0382FFAF
:102370001AC082E00E94ED2016C0C1155EE7D507A5
:1023800009F4BDCBC1308EE7D80709F4F5CBC032D4
:1023900098E7D90709F033CC18CCC0E0DEE7BFCC12
:1023A000C1E0DEE7BCCCCDB7DEB7E9E00C94D736B0
:1023B000E42FF0E0EE0FFF1FEF5CFD4F9081921BCA
:1023C00097FD9195292F38E1239F212D1124620F2C
:1023D00008952091400630E1230F08F42FEF60E1CB
:1023E000822F90E00E94B432BC0188EB9BE00E94F7
:1023F0009E3680E090E008950F931F93CF93DF9374
:10240000D62F072F182FC42F822F0E942432EC2F93
:10241000F0E0EE0FFF1FEF5CFD4F90819058890FA9
:1024200087FD8195880F682F2CE0629F612D112414
:102430006D0F702F812FDF91CF911F910F91089514
:102440000E94292808950E94CC270895A4E0B0E0B6
:10245000ECE2F2E10C94B336782E80917201871190
:102460000DC020913C06237030E04091710150E096
:1024700081E02417350719F480E001C081E0817004
:10248000809377018091410690917601981739F0F9
:102490008093760140E060E080E00E942012EFE04F
:1024A0007E125DC084ED90E30E943C348A8342C07A
:1024B000F71508F49AC123E0721609F459C02715DC
:1024C00008F4F7C031E0731609F497C0371508F027
:1024D000B6C080917501382F330F330F380F398311
:1024E00075E0F72EF30E80E38F1510F460E3F62EFF
:1024F00010913E0690913F069A8300913D06B801E7
:10250000892F0E94BE32E62ED72EC82E609140063B
:10251000600F712F8A810E94BE326A83172F082FA5
:1025200029812F1508F4ABC031E03A838FE28F1573
:1025300008F48EC0809175018F5F809375019A8138
:10254000911112C582E08093780180917701811109
:102550000BC5711009C583E08093780105C5E715A7
:1025600008F46BC1F7E07F12A3CF83E091E39CCF27
:1025700080917501982F990F990F980F99839B5F00
:102580009B83913310F0E0E3EB83E0903E06D09024
:102590003F062091400650E4F52E3F2D329F312D0D
:1025A0001124F32EE981FB81EF1708F042C08981E5
:1025B000082F10E0F801EF56FD4F908180917601D1
:1025C0008923B9F0F801EE0FFF1FEE5CFD4F80810B
:1025D00082958F7060913D068F9D600D11247E2D38
:1025E0008D2D0E94BE32462F282F672FC8010E94D2
:1025F000231299819F5F9983D5CF80917501282FF0
:10260000220F220F280F29832B5F2B83213310F0F9
:1026100030E33B8360913D0670913E0680913F061A
:102620000E94BE32162F072FF82EE981FB81EF178B
:1026300088F021E02A83F03308F47CCF09C0809130
:102640007701882329F040E060E080E00E942012BA
:102650001A8270CF8981E82FF0E0DF01AF56BD4FBD
:102660008C9190917601982331F02F2D412F602F7E
:10267000CF010E94231299819F5F9983D6CFE98170
:102680008E2F90E0FC01EF56FD4F308120917601B6
:10269000232359F030FF04C0202F4A81612F03C04B
:1026A0002C2D4E2D6D2D0E942312F981FF5FF98391
:1026B00037CF85E078124AC080917501382F330FEB
:1026C000330F380F39833B5F3B83313310F080E3A6
:1026D0008B8300913D0610913E06F0903F0660917D
:1026E000400666956695669580913306909134060E
:1026F0000E94B4320E942432805887FD8195880F51
:10270000282F3F2D239F212D1124822FB8010E94B5
:10271000BE32162F072FF82EE981FB81EF1708F044
:1027200088CF8981E82FF0E0DF01AF56BD4F8C9153
:1027300090917601982331F02F2D412F602FCF01FA
:102740000E94231299819F5F9983E6CF871508F431
:1027500049C080917501382F330F330F380F3983FB
:102760003B5F3B83313310F080E38B83E0903E0688
:10277000D0903F062091400630E4F32E3F2D329F4B
:10278000312D1124F32EE981FB81EF1708F051CF91
:102790008981082F10E0F801EF56FD4F908180915C
:1027A00076018923D9F0F801EE0FFF1FEF5CFD4F92
:1027B0006081F69EB001112495E0759567959A9514
:1027C000E1F780913D06680F7E2D8D2D0E94BE326F
:1027D000462F282F672FC8010E94231299819F5FDF
:1027E0009983D1CF8FE291E35FCE9BE0791208C04D
:1027F00082EB91E302C08EEC91E30E94DB3456CE73
:10280000971568F0E9E07E1205C089EE91E30E9419
:1028100057354CCEE71578F387E092E3F8CFFDE02B
:102820007F1203C088EF90E33FCEF71518F081E0E8
:1028300091E33ACE8FEE90E337CE27E172128DC04E
:1028400080917501382F330F330F380F3983132FD1
:102850001B5F113308F010E380917701811121C0D3
:102860006091400620E1620F08F46FEF809133061B
:10287000909134060E94B4326AE070E00E949E3665
:10288000892B41F50E94453290E3899F90011124E4
:1028900060917601832F932F990F990B0E94732BD0
:1028A00019C0F981EF2FF0E0FC83EB83E12EF12CCE
:1028B0008B819C818E159F056CF4609176018B81D4
:1028C0009C810E94732B2B813C812F5F3F4F3C8367
:1028D0002B83EECF91E09A833CC0E71508F4D2C079
:1028E000F9E17F1609F467C0F71508F4C8C08091B4
:1028F0007501E82FEE0FEE0FE80FE9831E2F1B5F27
:10290000113308F010E38091770181119FC060912D
:10291000400620E1620F08F46FEF8091330690913A
:1029200034060E94B43265E070E00E949E36892B26
:1029300071F40E944532F0E38F9F90011124609161
:102940007601832F932F990F990B0E944F2BF1E063
:10295000FA83103308F4EECD7BCE271530F133E146
:10296000731203C08DE891E348CF371570F081E111
:10297000781203C08BE892E34ACF871518F085ECF4
:1029800090E33BCF81EA91E342CF95E1791203C016
:1029900085E690E304C0971528F087E990E30E944C
:1029A000863484CD87E290E3FACFEBE17E1295CFB7
:1029B00088ED91E179CD80917501282F220F220FAA
:1029C000280F29832B5F2B83213310F030E33B83C7
:1029D00000913E0610913F06F0903D066091400642
:1029E00066956695669580913306909134060E94AF
:1029F000B4320E942432805887FD8195880F682F59
:102A00002CE0629F612D11246F0D702F812F0E9489
:102A1000BE32162F072FF82EE981FB81EF1708F041
:102A200008CE8981E82FF0E0DF01AF56BD4F8C91D1
:102A300090917601982331F02F2D412F602FCF01F7
:102A40000E94231299819F5F9983E6CF3981232FBA
:102A500030E03C832B83E12EF12CEB81FC81EE15E1
:102A6000FF050CF074CF609176018B819C810E94F0
:102A70004F2B8B819C8101969C838B83EECF8CEFB7
:102A800091E112CD2DE17212EEC04091660350919A
:102A90006703609168037091690380913306909198
:102AA0003406A0913506B091360684179507A6071F
:102AB000B70708F4CDCD8091770181110EC08091C8
:102AC0007501382F330F330F380F3983032F0B5F06
:102AD000013308F45AC000E358C040E060E080E0F1
:102AE0000E94201206ED12E01C821B820E944532D9
:102AF00081FF05C0F80110821182128220C00E945D
:102B00004532D82E0E944532F0E88F9FC001112433
:102B10007FE7790F8B819C81880F991F2B813C81E6
:102B2000820F931FFC01EA52FD4F7F016D2D8091B2
:102B30003F060E94BE32F7016083718382832B813E
:102B40003C812F5F3F4F3C832B830D5F1F4F203312
:102B5000310561F6B4CF3981832F90E0FC01EF5647
:102B6000FD4F308120917601232361F0FC01EE0FAF
:102B7000FF1FE80FF91FEA52FD4F2281408161815A
:102B80000E94231289818F5F89839981901718F39E
:102B9000E1E0EA83003308F01A82003308F4CACC7B
:102BA00020E010E001501109822F90E0801791077A
:102BB000CCF4AC01440F551F480F591F4A525D4FCA
:102BC0000196FC01EE0FFF1F8E0F9F1FFC01EA52C2
:102BD000FD4F80819181A281FA0180839183A2833C
:102BE0002F5FE2CF0E9445327801EE0CFF1C81FF7F
:102BF00009C00E0D1F1DF801EA52FD4F108211820F
:102C0000128218C00E94453289830E944532F0E842
:102C10008F9FC00111247FE7790F0E0D1F1D0A52EF
:102C20001D4F698180913F060E94BE32F80160838A
:102C3000718382830E94E91100913306109134065A
:102C40002091350630913606DC01CB01800F911FB3
:102C5000A21FB31F8093660390936703A09368033A
:102C6000B093690367CC721608F07AC08091750141
:102C7000982F990F990F890F8B5F8B8340913306A3
:102C80005091340660913506709136068091D202DB
:102C90009091D302A091D402B091D50284179507E8
:102CA000A607B70708F055C00E94453230E3839F5E
:102CB000C0011124092F112707FD1A95F801EF56BD
:102CC000FD4F808190917601982309F442C00E94C3
:102CD000453281FD0EC00E94453289830E944532F3
:102CE000E0E88E9FC00111247FE7790F80913F06B5
:102CF00003C080E070E0198269810E94BE32462FD5
:102D0000282F672FC8010E9423122091400630E12E
:102D1000230F08F42FEF60E1822F90E00E94B4327D
:102D2000BC0184EF91E00E949E3680913306909121
:102D30003406A0913506B0913606860F971FA11D67
:102D4000B11D8093D2029093D302A093D402B0938A
:102D5000D502F1E0FA832B81203308F4EBCB78CC59
:102D60003EE17312C7C080917701882329F040E0CB
:102D700060E080E00E94201280917501982F990FE9
:102D8000990F890F8B5F89834091330650913406E8
:102D90006091350670913606809194039091950369
:102DA000A0919603B091970384179507A607B707DC
:102DB00008F099C060913D0670913E0680913F06F3
:102DC0000E94BE32662E572E482E0AE613E02DEDE5
:102DD00031E03C832B8341E3842E42E0942EAB8090
:102DE000BC806501780132E0332EF7018081F60165
:102DF000882369F08081242D462D652D90E00E9466
:102E00002312F5018581242D462D652D0CC080816E
:102E100020E040E060E090E00E942312F50185810F
:102E200020E040E060E090E00E942312F701818101
:102E300081937F013A94FFEFCF1ADF0A21E0A21AB3
:102E4000B1083110D2CFF8018281EB81FC81882357
:102E500071F08281242D462D652D90E00E94231271
:102E6000EB81FC818381242D462D652D0DC082814F
:102E700020E040E060E090E00E942312EB81FC81C2
:102E8000838120E040E060E090E00E9423120E94F5
:102E90004532837091E009F090E0F80192830D5F74
:102EA0001F4F2B813C812A5F3F4F3C832B8382162F
:102EB000930609F094CF0E94E91100913306109116
:102EC00034062091350630913606DC01CB01800FA7
:102ED000911FA21FB31F8093940390939503A09317
:102EE0009603B093970331E03A838981803308F4E5
:102EF00021CBAECB8FEF781231C080913306909109
:102F00003406A0913506B091360688279C70AA2712
:102F1000BB272AE0B695A795979587952A95D1F76F
:102F200082309105A105B10571F083309105A105AD
:102F3000B10569F040E00197A105B10511F060E02D
:102F400008C064E102C044E160E080E003C044E105
:102F500064E184E10E94201282E0FECA8091750142
:102F60008F5F80937501EECA2496E1E10C94CF3611
:102F7000ECE3F6E085E380838091790190917A011A
:102F8000A0917B0181839283A3838FE784838FEF5A
:102F9000858348E050E068E170E0CF010E94163779
:102FA00010923B0608958091C50387FF11C0809160
:102FB000E80082FD05C080913A068111F8CF11C06A
:102FC0008091E8008B770BC080913A06882349F006
:102FD0008091E80080FFF8CF8091E8008E778093A1
:102FE000E8000895982F973068F59093E9009817B6
:102FF00039F07091EC002091ED005091F00003C089
:10300000242F762F50E021FD02C09F5FECCF30913E
:10301000EB003E7F3093EB003091ED003D7F30932D
:10302000ED003091EB0031603093EB007093EC00D9
:103030002093ED005093F0002091EE0027FDE5CFA6
:1030400080E008958F708093E90081E008952091D9
:10305000CB033091CC032617370748F06115710573
:1030600039F42091E8002E772093E80001C0B901DF
:10307000FC0120E06115710579F180913A06882301
:10308000F1F18530F1F18091E80083FD3CC0809141
:10309000E80082FD2EC08091E80080FFEBCF2091F8
:1030A000F3008091F20090E0922B6115710551F0D0
:1030B0008830910538F421912093F1006150710915
:1030C0000196F3CF21E0089709F020E08091E80015
:1030D0008E778093E800CECF2111CFCF0AC08091A8
:1030E0003A06882361F0853061F08091E80083FD25
:1030F0000AC08091E80082FFF2CF80E0089582E06C
:10310000089583E0089581E008958091A1030895D2
:103110009B0190913A069430F1F48F708093E9000E
:103120008FEF9091E800815095FD06C095ED9A953E
:10313000F1F700008111F5CF8091E80085FF0BC009
:10314000BA01C90140E050E00E94E9338091E800F3
:103150008E778093E800089543E050E0BC0185E05D
:103160000E948818089545E050E0BC0182E00E946A
:1031700088180895CF93DF93EC01809106018111A7
:1031800005C048E050E0BE0181E00BC080919C0387
:1031900087FF03C040E285E002C048E081E050E0E4
:1031A000BE010E94881880E2FE01A2EAB3E001900D
:1031B0000D928A95E1F7DF91CF910895AAE2B0E0F0
:1031C000E4EEF8E10C94C136E5ECF3E08DEC93E02D
:1031D0002091F10021938E179F07D1F78091C603AC
:1031E000833009F463C030F4813071F0823009F427
:1031F0009FC0B6C08A3009F48BC08B3009F46EC012
:10320000893009F0ADC020C08091C503813A09F032
:10321000A7C08091E800877F8093E8008091C90370
:103220009091CA03892B21F460E282EA93E003C003
:1032300060E080E090E070E00E9427188091E80054
:103240008B778093E8008CC08091C503813209F0B0
:1032500087C08091C9039091CA03009719F0039722
:1032600009F07EC08091E800877F8093E80080911C
:10327000E80082FD05C080913A068111F8CF70C048
:103280002091F3008091F20090E0922B029731F4AC
:103290008091F100813011F0863021F48091F100AD
:1032A0008093A1038091E8008B7756C08091C5037D
:1032B000813A09F055C08091C9039091CA03892BC6
:1032C00009F04EC08091E800877F8093E8008091EC
:1032D000E80080FFFCCF8091060139C08091C503D2
:1032E0008132F1F58091C9039091CA03892BC1F510
:1032F0008091E800877F8093E8000E94D317809137
:10330000C7038093060110929F030E94D92D28C005
:103310008091C503813221F58091E800877F8093F9
:10332000E8000E94D3178091C8038093A00318C0BF
:103330008091C503813AA1F48091E800877F809352
:10334000E8008091E80080FFFCCF8091A00380938B
:10335000F1008091E8008E778093E8000E94D317F7
:103360008091E80083FFE4C18091C5039091C6037A
:10337000492F50E04A30510508F0DAC1FA01EB5705
:10338000FF4F0C94FA38803821F0823809F0D0C110
:1033900008C08091C2039091C303992389F0826091
:1033A0000FC08091C9038F70873008F0C1C180932E
:1033B000E9008091EB0085FB882780F91092E900F5
:1033C0009091E800977F9093E8008093F10010922D
:1033D000F10070C1282F2D7F09F0AAC1882319F0B0
:1033E000823061F0A5C18091C703813009F0A0C18E
:1033F000933009F080E08093C3032EC08091C7030F
:1034000081112AC08091C9038F702FEF280F2630B9
:1034100008F08EC18093E9002091EB0020FF1CC0D2
:10342000933021F48091EB00806214C09091EB0006
:1034300090619093EB0021E030E0A90102C0440FBD
:10344000551F8A95E2F74093EA001092EA008091B6
:10345000EB0088608093EB001092E9008091E80017
:10346000877F8093E8000E94D31762C1811160C1F9
:103470001091C7031F778091E3008078812B8093A0
:10348000E3008091E800877F8093E8000E94D317D3
:103490008091E80080FFFCCF8091E30080688093FA
:1034A000E300111102C082E001C083E080933A067C
:1034B0003FC18058823008F03BC12091C703309152
:1034C000C8032C3D53E0350779F583E08A838AE20F
:1034D00089834FB7F894DE01139620E03EE051E275
:1034E000E32FF0E050935700E49120FF03C0E295F2
:1034F000EF703F5FEF708E2F90E0EA3010F0C796CC
:1035000001C0C0968D939D932F5F243149F74FBF23
:103510008091E800877F8093E8006AE270E0CE0146
:1035200001960E942718B4C08091C9039091CA03E4
:10353000432F552743305105A9F068F44130510518
:1035400009F405C14230510509F0F2C084E790E06A
:10355000E8EBF6E04BC04132510529F1423251050A
:1035600089F1E6C0C901992781309105A1F058F091
:10357000029709F0DDC0EEE3F7E0E4918E2F90E0D2
:10358000EEE3F7E030C0EAE8F7E0E4918E2F90E058
:10359000EAE8F7E028C0E0E6F7E0E4918E2F90E05B
:1035A000E0E6F7E020C08430910508F0C1C0880F44
:1035B000991FFC01E857FE4F0190F081E02D89E052
:1035C00090E014C08430910508F0B2C0FC01EE0F09
:1035D000FF1FE058FE4F0190F081E02DDC01A45860
:1035E000BE4F8C9190E0009709F4A2C02091E800B2
:1035F000277F2093E8002091CB033091CC0328173C
:10360000390708F4C90140E0009789F120913A0692
:10361000222309F43DC02530D9F12091E80023FD93
:1036200037C02091E80022FD2FC02091E80020FF44
:10363000EBCF4091F3002091F20030E0342B009763
:1036400059F02830310540F444914093F10031960F
:1036500001972F5F3F4FF3CF41E02830310509F04C
:1036600040E02091E8002E772093E800CDCF411173
:10367000CDCF0AC080913A06882351F0853041F0C1
:103680008091E80083FD04C08091E80082FFF2CFC2
:103690008091E8008B778093E8004AC0803809F079
:1036A00047C08091E800877F8093E8008091C40341
:1036B0008093F1008091E8008E77D3CE811138C0DD
:1036C0008091C7039091C803992702978CF5809148
:1036D000E800877F8093E8001091C7031093C4032C
:1036E0000E94D317111106C08091E30087FD02C02C
:1036F00081E001C084E080933A0642E061EC81E021
:103700000E94F21742E061EC82E00E94F21742E26E
:1037100061EC85E00E94F21742E261EC83E00E94D6
:10372000F21742E260EC84E00E94F21780913A06C0
:103730008091E80083FF10C08091E800877F80932C
:10374000E8008091EB0080628093EB0005C082E18D
:1037500090E0ECE2F7E04ACFAA96E3E00C94DD3685
:103760001F920F920FB60F9211242F933F934F93F6
:103770005F936F937F938F939F93AF93BF93CF93F9
:10378000DF93EF93FF93C091E900CF708091EC003D
:10379000D82FD17080FDD0E81092E9008091F00020
:1037A000877F8093F00078940E94DE181092E900E1
:1037B0008091F00088608093F000CD2BCF70C09393
:1037C000E900FF91EF91DF91CF91BF91AF919F9170
:1037D0008F917F916F915F914F913F912F910F90BA
:1037E0000FBE0F901F901895E8EDF0E080818E7F5E
:1037F00080831092E2001092DA001092E100A0EEB5
:10380000B0E08C9181608C9380818F77808319BC2C
:10381000A7EDB0E08C918E7F8C9380818F7E80832A
:1038200010929E030895A0E0B0E0E9E1FCE10C9461
:10383000BC36C8EDD0E088818F7E8883E7EDF0E06C
:1038400080818160808384E082BF81E080939E03D9
:1038500088818E7F888302EE10E0F801108210923A
:10386000DA0081EEC82ED12CF601108288818F7784
:10387000888388818068888388818F7D888319BC4C
:1038800010923A061092C4031092C3031092C2031E
:1038900090EEE92EF12CF70180818B7F8083888167
:1038A0008160888342E060E080E00E94F217F601C8
:1038B00080818E7F8083F801808181608083808118
:1038C00088608083F70180818E7F8083888180611A
:1038D0008883CDB7DEB7E8E00C94D8361F920F92FC
:1038E0000FB60F9211242F933F934F935F936F93D3
:1038F0007F938F939F93AF93BF93EF93FF938091A9
:10390000E10082FF09C08091E20082FF05C0809142
:10391000E1008B7F8093E1008091DA0080FF2AC074
:103920008091D80080FF26C08091DA008E7F80933E
:10393000DA008091D90080FF18C080E189BD82E162
:1039400089BD09B400FEFDCF81E080933A068091E5
:103950009E0381110FC00E94F41B0E94131C8091D2
:10396000E20084608093E20005C019BC10923A0620
:1039700010929E038091E10080FF17C08091E200C9
:1039800080FF13C08091E2008E7F8093E2008091DF
:10399000E20080618093E2008091D8008062809391
:1039A000D80019BC85E080933A068091E10084FF3D
:1039B00030C08091E20084FF2CC080E189BD82E1AB
:1039C00089BD09B400FEFDCF8091D8008F7D809322
:1039D000D8008091E1008F7E8093E1008091E20029
:1039E0008F7E8093E2008091E20081608093E2000C
:1039F0008091C403882311F084E007C08091E30024
:103A000087FD02C081E001C083E080933A06809187
:103A10003A068091E10083FF27C08091E20083FF96
:103A200023C08091E100877F8093E10082E0809352
:103A30003A061092C4038091E1008E7F8093E100EA
:103A40008091E2008E7F8093E2008091E2008061AD
:103A50008093E20042E060E080E00E94F2178091F3
:103A6000F00088608093F000FF91EF91BF91AF91DB
:103A70009F918F917F916F915F914F913F912F9186
:103A80000F900FBE0F901F9018952091E400309179
:103A9000E50095E64091EC00842F817040FF23C043
:103AA0008091E80080FD1DC080913A06882399F03E
:103AB000853099F08091EB0085FD11C04091E400C4
:103AC0005091E5002417350729F3915011F09A0120
:103AD000E1CF84E0089582E0089583E0089581E0D5
:103AE000089580E008954091E80042FFDDCF0895F9
:103AF00078941F920F920FB60F9211248F939F9379
:103B0000AF93BF938091980390919903A0919A03EA
:103B1000B0919B030196A11DB11D809398039093D2
:103B20009903A0939A03B0939B03BF91AF919F9188
:103B30008F910F900FBE0F901F9018959C014FB75B
:103B4000F8948091980390919903A0919A03B09171
:103B50009B034FBF821B930B08952FB7F89460917E
:103B600098037091990380919A0390919B032FBFC2
:103B700008952FB7F8948091980390919903A0919C
:103B80009A03B0919B032FBF089580E00895909110
:103B90009C0392FF10C041E0282F2471243009F0CB
:103BA00040E031E0282F2871283009F030E0431739
:103BB00011F02CE0822793FF10C041E0282F2471E0
:103BC000243109F040E031E0282F2871283109F034
:103BD00030E0431711F02CE0822730919D0330FF35
:103BE00010C051E0282F2171213009F050E041E050
:103BF000282F2871283009F040E0541711F029E0EF
:103C0000822731FF10C041E0282F2171213109F0B6
:103C100040E031E0282F2871283109F030E04317C7
:103C200011F029E0822794FD877E0895823891055E
:103C300069F1B0F48133910509F475C048F4893213
:103C4000910509F467C08A32910509F471C008959D
:103C50008533910509F459C089339105B9F0089568
:103C6000833E910589F138F4803E9105D1F0823E82
:103C7000910529F10895863E9105C9F1873E910588
:103C8000D9F1843E910509F06CC027C020919C03B6
:103C900020FD57C021FD55C020919D0323FD5BC031
:103CA000089580919C0380FD48C080919D0380FF12
:103CB00048C080919C0384FD46C083EE51C0809132
:103CC0009C0382FF3CC0F5CF80919C0382FD37C0EE
:103CD00080919D0380FD35C0ECCF80919D0381FFD5
:103CE00036C080919C0384FD2EC087EE39C0809140
:103CF0009C0383FF2AC0F5CF80919C0383FD25C0E0
:103D000080919D0381FD23C0ECCF80919C0385FDB4
:103D100022C01FC080919C0385FD1BC080919D0324
:103D200083FF19C00AC080919C0386FD16C017C08E
:103D300080919C0386FD13C010C089E311C082EE00
:103D40000FC080EE0DC080E00BC086EE09C084EE8F
:103D500007C085E305C089E203C08AE201C081E3B0
:103D600090E0089520912D049091F40357E02917D5
:103D7000A9F030E0529FF001539FF00D1124EB5059
:103D8000FC4F7181761306C07081781303C0758172
:103D9000741306C02F5F3F4F2770E9CF80E008956E
:103DA00081E008957E30B0F46630A0F48930A0F44C
:103DB00094E5899FF001112486E0789FE00DF11DC4
:103DC0001124E60FF11DEE0FFF1FE257F84F85910A
:103DD0009491089580E001C081E090E008951F93E0
:103DE000CF93DF930E94161EEC01C11580E5D80722
:103DF000E8F5C11590E4D90708F0A8C0C03ED10588
:103E000030F5CD3CD10508F094C0C83AD10578F41E
:103E1000C53AD10508F083C0C130D10509F47CC092
:103E200008F4F2C0C430D10508F0F1C0EDC0C33CC5
:103E3000D10508F0E9C0C85AD0E0CC0FDD1FCD563F
:103E4000DE4F0990D881C02DCE019464E1C0C11528
:103E500080E2D80708F0CBC0C11591E0D90708F07F
:103E60006BC0C83ED10508F4D2C0CEC0C03682E5D2
:103E7000D80728F5C03492E5D90708F079C0C032D8
:103E800082E5D80708F06CC0C11592E5D90708F49F
:103E900081C04C2F4695469580E2489FA001112491
:103EA000C37021E030E0C90102C0880F991FCA9594
:103EB000E2F7EA01C82BD92BCE019D68A9C0C03A10
:103EC00082E5D807B8F48C2F8F71C03892E5D907F6
:103ED00008F07BC08695869590E2899F9001112419
:103EE000C37081E090E002C0880F991FCA95E2F785
:103EF0009A6868C0C03C82E5D80708F46DC0C03E2F
:103F000092E5D90708F080C0CF71DD27DC2FCC27E0
:103F1000CE01806F906A7CC081E090E079C0C55A84
:103F2000D0E0C057DE4F8881C82FD0E0CE0190642A
:103F30006FC0CE0190656CC08D2F0E94C71D182FD9
:103F4000CE0199270E94161E1F715CC0CE019927D1
:103F50000E94161ECC27DF70D06A8C2B9D2B58C078
:103F6000CF71D0E0DC2FCC27CE01816F906A50C09A
:103F70008C2F8F718695869590E2899F90011124F0
:103F8000C37081E090E002C0880F991FCA95E2F7E4
:103F90009C6818C08C2F8F710E94C71D95E0D69524
:103FA000C7959A95E1F7CF70D0E0DC2FCC27282F6A
:103FB00030E084FF05C084E0220F331F8A95E1F7CB
:103FC000D069CE01822B932B23C090E0D82FCC2731
:103FD000CE01846F906A1CC08C2F8F710E94C71D08
:103FE0008F7190E0D82FCC27CE01906211C08D2F19
:103FF0008F710E94C71D182FCE0199270E94161E8F
:104000001F719062912B04C080E090E001C0CE014E
:10401000DF91CF911F910895A8E0B0E0E2E1F0E2D6
:104020000C94C23666EE7EEF80E090E00E9444374A
:1040300060E082E090E00E94263760E083E090E05C
:104040000E942637109251041092500460E074E1EF
:1040500084E090E00E94443760E086E090E00E94B7
:1040600026376FEF87E090E00E94263740E050E06F
:10407000BA0188E090E00E94383760E084E290E086
:104080000E94263760E087E190E00E94263760E0DA
:104090008CE090E00E94263760E08DE090E00E9486
:1040A000263719821A821B821C821D821E821F8261
:1040B000188648E050E068E170E0CE0101960E9469
:1040C000163740E050E0BA0180E290E00E943837B5
:1040D0001092900410929104109292041092930402
:1040E00084E08093900440919004509191046091F9
:1040F0009204709193048FE090E00E94383740E082
:1041000050E0BA0183E190E00E9438372896E2E05F
:104110000C94DE3680959091F10589238093F1050A
:104120000895809590919F03892380939F0308951C
:1041300090919F038091F105982B9093CD038091EE
:104140004F048823D9F0892B8093CD0380910601F9
:10415000882331F080919C0387FF02C08EE101C06B
:1041600086E0EFECF3E090E0815028F021912223EB
:10417000D9F39F5FF9CF911110924F0440E250E0C4
:104180006FE274E08DEC93E00E94213A892B21F1DB
:1041900080E2EDECF3E0AFE2B4E001900D928A959D
:1041A000E1F7E091F605F091F7053097A9F08091DD
:1041B0000601882359F080919C0387FF07C08091F6
:1041C000CD038093CE0386E08093CD030280F381FC
:1041D000E02D8DEC93E00995089590912E04809543
:1041E000892380932E04282F277069F4981759F09B
:1041F00090919D0392FF07C08695869586950E94B3
:104200008F2D10922E04089590919D0392FB2227EA
:1042100020F9281779F080FB92F990939D03609123
:104220009C0370919D0384E090E00E94443782E0FB
:104230000E94ED20089580912D049091F403891738
:1042400019F08F5F8770FBCF0895CF93DF93809134
:10425000F30382958F7009F04EC08091F20388239A
:1042600009F449C080912D044091F4035091EE036C
:104270006091ED03C091EF03D091F00377E08417D4
:10428000D1F190E0789FF001799FF00D1124DF01CA
:10429000AB50BC4F14962C911497222349F11196E0
:1042A0002C911197251324C02C91261321C015960B
:1042B0002C91159721111CC012962D913C911397AA
:1042C0002C1B3D0B283C310598F48091F3038F7033
:1042D00080618093F303E550FC4F80818F70806193
:1042E00080838DEE93E00E942F0D0E941B2103C05E
:1042F00001968770C4CFDF91CF910895A4E1B0E01B
:10430000E4E8F1E20C94B8368C0186E0F801DE01B5
:104310001F9601900D928A95E1F7F8018481E5805E
:104320009DEE892E93E0992E9091F103911120C07A
:10433000882309F463C1EE2009F442C0C8010E9439
:10434000B62DF82E8823E1F187E0F801D401019021
:104350000D928A95E1F78091F103813031F48091DB
:10436000ED039091EE030E94F42C0E94252148C198
:10437000F801D080C180A280B380F090F203209138
:10438000EF033091F003FF2009F4E7C0A501421BC1
:10439000530B483C510508F09DC0882309F430C1F7
:1043A0008091F303282F207F9091EE03222361F068
:1043B0009C1509F460C0C8010E94B62D811163C02C
:1043C000C8010E942F0D1AC19C1113C09091ED03DA
:1043D0009D110FC0E1100DC08F7080618093F303B9
:1043E0008DEE93E00E942F0D8091F303F8018683F8
:1043F00003C1E1103AC040E06C2D8D2D0E94B21E29
:1044000040E06C2D8D2D0E94B21EE82E8111F4C06B
:10441000DF86C88A8F8598890E94F42C292F2295DF
:104420002F70243020F49F70223028F009C02A50C9
:10443000223080F014C0992349F0811107C013C0C5
:10444000992321F0F8019681907F69F0805E883091
:1044500030F409C0803F38F0815F833020F0C8011C
:104460000E942F0DEF2CFE2CCBC08091F3038160B6
:104470008093F303C1C09091ED039D119CCFE11097
:104480009ACFF80198C0EE2009F49ACF2091F30357
:10449000822F82958F7090E002978CF08091ED03CF
:1044A0009091EE0399878887BB86AA868091F10355
:1044B0008C871D862E87CE0108960E942F0D87E0DF
:1044C000F801ADEEB3E001900D928A95E1F70E94FC
:1044D000252194C09091F303292F207F51F48DEE74
:1044E00093E00E942F0D87E0F40111928A95E9F77D
:1044F00083C0882309F484C08091EE038C110CC022
:104500008091ED038D1108C0E11006C0F80196837B
:10451000C8010E942F0D6AC0C8010E94B62D8823D1
:1045200009F44ECFEE2009F44BCF2091F303822FF4
:1045300082958F7090E0029714F28091ED03909134
:10454000EE039A838983BC82AB828091F1038D83D1
:104550001E822F83CE010196B0CFA21AB30AF8ECC7
:10456000AF16B10408F042C0882309F447C0FE2CFE
:10457000EE2009F425CF8091EE038C1129C08091A3
:10458000ED038D1125C09091F30390FD18C0892F84
:1045900082958F70282F30E02115310581F0F801C8
:1045A00096832F30310541F08F5F982F9295907F41
:1045B00086818F70892B8683C8010E942F0D87E02A
:1045C000F801ADEEB3E001900D928A95E1F718C0C5
:1045D000C8010E94B62D811172CF8091F3038160D2
:1045E0008093F303C8010E942F0D0AC087E0F401F5
:1045F00011928A95E9F704C0F12C02C0FF24F394CC
:104600008F2D6496ECE00C94D436A0E0B0E0EBE0A3
:10461000F3E20C94BC3680910F0190911001892B2C
:10462000A1F0809154048F5F8093540481110DC0D8
:104630000E94A10B90E09093100180930F01892BB1
:1046400021F40E94180C0E94BE2B0CE514E07801A6
:10465000D0E0C0E087E0C82ECC0E8C2F0E94880CE2
:104660008C2D0E94880C8C2F0E94EB0C8F73F7010D
:104670009081891721F08083DD24D39401C0D12C4F
:104680008C2D0E94EB0C8F73F7019781891719F01D
:10469000878381E001C080E0D82ADD290E94DC0CFC
:1046A000CF5FFFEFEF1AFF0AC730A1F6109259044F
:1046B000C0915804CC2309F47DC00E94B91D2091FB
:1046C000560430915704AC01421B530B9A0190934E
:1046D0005704809356044F3F510509F018F4452BB9
:1046E00019F102C02FEF30E01092580410925504D7
:1046F000E0915A04F0915B04AF01425F5F4F90E09C
:1047000030E08081882341F0281718F010829C2F18
:1047100003C0821B80833C2F3196E417F50789F78D
:104720003093580490935504DD23B1F11092550451
:10473000E0915A04F0915B048091590490915804DF
:10474000AAE6B4E0AF01425F5F4F6EE1E801288165
:104750003C91321779F0308131110CC060832C9379
:1047600098819227282F30E0292B81E0232B09F410
:1047700080E091E0319611960F5F1F4FE417F50727
:1047800029F7809359049093580480915904CDB728
:10479000DEB7E8E00C94D83681E090915504992377
:1047A000A1F38111C3CF0E94B91D90935704809348
:1047B0005604BCCFD111F7CF80E0EFCFA6E0B0E038
:1047C000E4EEF3E20C94C0360E94B91D8C01809196
:1047D0005204909153040817190781F019821A8224
:1047E0000E94B91D682F49815A81792F80E090E09D
:1047F0000E943F0A10935304009352042696E4E06B
:104800000C94DC36A6E4B0E0E8E0F4E20C94B636B2
:1048100085B7806885BF85B7806885BF84B7877F87
:1048200084BF0FB6F894A89580916000886180934A
:104830006000109260000FBE90E080E80FB6F89420
:1048400080936100909361000FBE85EC9DE1909391
:10485000C3028093C2020E94F41B0E94131C809129
:10486000E20084608093E200789480913A06882385
:10487000A1F01091E9001F709091EC00892F8170D8
:1048800090FD80E8182B1092E9008091E80083FDEC
:104890000E94DE181F701093E90082E084BD93E04F
:1048A00095BD9AEF97BD80936E000E94A10B90E09A
:1048B0009093100180930F010E94DC0C0E94220D46
:1048C000ECE5F4E0AAE6B4E011921D9224E0EA36A9
:1048D000F207D1F78EE090E00E94003980935A04ED
:1048E00090935B04FC010E961192E817F907E1F72B
:1048F00089EA8093800089E08093810024982C9835
:104900003F988AB18F7C8AB96E98479A8BB1806341
:104910008BB9769A8FE090E00E940A3760939004FA
:1049200070939104809392049093930467708FEF37
:10493000689FB001112475956795759567957727E0
:10494000709389006093880070938B0060938A0055
:1049500070938D0060938C000E94180C80E090E0B2
:104960000E941037863E9E4F11F00E940C2082E07C
:1049700090E00E9402378093780484E090E00E94E7
:10498000103790939D0380939C0383E090E00E94F6
:10499000023790E00E94B12D80918E0490918F0497
:1049A0000E94F70A0E94BE2B80913C068C3718F0BB
:1049B00080E00E94AE2B0E94B12B0E94B12B80910F
:1049C0003B06816080933B0687E091E09093F7057A
:1049D0008093F60508E110E080913A06853009F0F1
:1049E00076C050E4C52E68E7E62E64E0F62EBB24C0
:1049F000B39473E0A72EE0E1DE2E80913A06853075
:104A000009F05DC080913A06843009F436C00E94F6
:104A1000DF2B8091940481110DC00E942612109208
:104A2000720180913C068370809371010E94F2288C
:104A3000A0927801B09294041092FA050FB6F894FF
:104A4000A895009360000FBEC092600083B7817F7D
:104A5000846083BF83B7816083BF7894889583B770
:104A60008E7F83BF0FB6F894A8958091600088610F
:104A700080936000109260000FBE8091C303882372
:104A800009F4BBCF0E94A10B90E09093100180939A
:104A90000F010E94DC0C0E94220DEAE6F4E0119264
:104AA000EE16FF06E1F70E940523EAE6F4E08191A5
:104AB000811134C224E0E837F207C9F79ECF109283
:104AC0009F030E94D92D0E94E12A109294040E9413
:104AD000052349E7C42E44E0D42E27E834E0AAE6B3
:104AE000B4E0F60191918D9189272E173F0719F0B7
:104AF0008823C1F305C0811103C00E94DE234CC08E
:104B00003AE6832E34E0932EF12CF40171904F019C
:104B1000F601A080A724B9F1E12CBB24B39466244C
:104B200063948A2D8B2141F12296EFAE2297239632
:104B3000FFAE23970E94B91D25969FAF8EAF259794
:104B400026966FAE269791E0872D8B2109F490E091
:104B500027969FAF279722964FAD229723965FAD5A
:104B6000239724966FAD249725967FAD259726969B
:104B70008FAD26970E943F0AE394BB0CF6E0EF123C
:104B8000D0CFF6017082F394FFEFCF1ADF0A2EE048
:104B9000F212BBCF0E94AD1D8091F2059091F305FA
:104BA000892BE9F080918704909188040E949E1DD2
:104BB000893C9105A0F08091F2059091F305992729
:104BC00024E0880F991F2A95E1F7FC01EA5EFE4F69
:104BD000208122FD04C08F5E9E4F0E940D2B0E94FB
:104BE000DF2BB0902E06C0902F06D0903006F090AC
:104BF0003106E090320610922F0610923006109285
:104C0000310610923206C11003C0DD2009F447C0FE
:104C100080912C0690912D060E949E1D9C019091E2
:104C20002706992309F493C125313105C0F19F3F2F
:104C300019F09F5F90932706CC2061F00E946833A3
:104C40001C1414F491E001C09FEF899F802D112462
:104C500080932F06DD2061F00E9468331D1414F04C
:104C60009FEF01C091E0899F802D11248093300631
:104C700080912F06882399F0A0903006AA2079F021
:104C80000E948B33811101C081E080932F068A2D11
:104C90000E948B33811101C081E080933006F110B6
:104CA00003C0EE2009F447C080912A0690912B069C
:104CB0000E949E1D9C0190912806992309F44BC1E6
:104CC00025313105C0F19F3F19F09F5F9093280671
:104CD000FF2061F00E9448331F1414F491E001C0DA
:104CE0009FEF899F802D112480933106EE2061F083
:104CF0000E9448331E1414F09FEF01C091E0899F79
:104D0000802D11248093320680913106882399F0FA
:104D1000A0903206AA2079F00E948B33811101C045
:104D200081E0809331068A2D0E948B33811101C06E
:104D300081E08093320680912E068B111AC08091FB
:104D40002F06882311F08C1114C08091300688231F
:104D500011F0D8120EC080913206882311F0E812AB
:104D600008C090913106992331F081E0F91204C016
:104D700002C081E001C080E080FD15C080912F0657
:104D800081110FC08091300681110BC080913106D6
:104D9000811107C081E090913206911103C080E03B
:104DA00001C081E080FD0E949933B0922E06C0922E
:104DB0002F06D0923006F0923106E09232060E9421
:104DC000E12A90918904891721F0809389040E9437
:104DD000AD1D80913A06843009F0FECD8093E90044
:104DE0008091E80082FFF8CD8091E80085FF24C023
:104DF0000E94451D81111EC080E2E82EF12C6E013B
:104E000081E2C80ED11C09C08091F100F6018193A6
:104E10006F01F1E0EF1AF10869F08091E80085FD7B
:104E2000F3CF8091E8008B778093E8000E94451DC6
:104E3000882399F391E001C090E08091E8008B779E
:104E40008093E800992309F4C7CD89A1863009F43D
:104E500050C0A0F4823009F4BFCD58F4882301F18A
:104E6000813009F057C08093370684E089838EEF44
:104E70004BC0843011F18530E1F14CC08930C9F16B
:104E800028F4873089F18830A1F144C08A3099F143
:104E90008E3F09F03FC0898394E09A838B8335C0AD
:104EA00019828CE0E9ECF1E0DE01129601900D929E
:104EB0008A95E1F78EEF8D8728C080913706882389
:104EC00009F48ACD8AA1811104C08BA10E948F2D83
:104ED00083CD81E090E00BA002C0880F991F0A9457
:104EE000E2F70E94682D78CD81E08093390685E055
:104EF00012C084E010C081E09AA1911101C080E04D
:104F0000809339069BE099838A83CE0101960E94A3
:104F1000133462CD8FEF0E94372B5ECDD9BC82E176
:104F200089BD09B400FEFDCF8091D8008F7D8093AC
:104F3000D8008091E00082608093E0008091E000E2
:104F400081FDFCCF10929F030E94D92D56CD232BBB
:104F500009F06FCEA4CE2139314008F0B6CEEBCEA9
:104F6000ECE3F6E0248130E1231B08F420E0248305
:104F700080913B06816080933B060895ECE3F6E068
:104F8000248130E1230F08F42FEF248380913B0626
:104F9000816080933B060895A4E0B0E0E2EDF7E283
:104FA0000C94BF368033910508F04FC0122F042FA8
:104FB000F62EBC01660F771F660F771F6A58724F77
:104FC00044E050E0CE0101960E94E9368981837069
:104FD0004A8150E044525109282F30E060E9869F11
:104FE000C001112485559B4FFC01E40FF51FE081A2
:104FF0007B816C81EF110EC0FC01E70FF11DB497AE
:10500000E081E01307C0860F911DFC01B4978081F9
:105010008117D9F0E0E9E29FC001E39F900D1124D0
:1050200085559B4FFC01E40FF51FF082FC01E70F53
:10503000F11DB4970083860F911DFC01B497108376
:10504000F901E755FB4F81E080832496E5E00C945D
:10505000DB36FF920F931F93CF93DF93182F062F0A
:10506000F42EC0E0D0E02F2D402F612FCE010E9402
:10507000CC272196C033D105B1F7CDB7DEB7E5E037
:105080000C94DB36E5E9F4E06083418323E030E013
:1050900042E050E0BF01880F0E9479360895A0E0F9
:1050A000B0E0E5E5F8E20C94BD36262F30E0A9012A
:1050B00041515A4F7A01FA019081911107C0F701CD
:1050C0001082CDB7DEB7E7E00C94D936D82EF2E1E6
:1050D0006F9FE001112400E010E0F801EC0FFD1FCC
:1050E000E553FA4F4081602F8D2D0E9442280F5FBB
:1050F0001F4F0231110589F7E2CFCF93DF93C82FFD
:105100004BE06DEF0E94422840E06AE08C2F0E9445
:1051100042288FE39CE90197F1F700C0000040E0CE
:1051200060E08C2F0E94422840E061E08C2F0E94BA
:10513000422840E066E08C2F0E94422840E06DEF5C
:105140008C2F0E944228D0E040E06D2F8C2F0E94CF
:105150004228DF5FD231C1F740E06D2F8C2F0E94D3
:105160004228DF5FD432C1F740E06D2F8C2F0E94C0
:105170004228DF5FD43BC1F74BE06DEF8C2F0E94DC
:10518000422841E06AE08C2F0E94422840E06DEF07
:105190008C2F0E944228DF91CF9108950F931F9387
:1051A000CF93DF93082F000FEB0114E210939504C7
:1051B00080E1FE01A6E9B4E001900D928A95E1F745
:1051C00023E030E041E150E065E974E0802F0E9487
:1051D0007936105F6096143B49F7DF91CF911F91AC
:1051E0000F9108958091A904882329F06BEA74E057
:1051F00084E70E94CE281092A9048091AA048823F3
:1052000029F06BE375E087E70E94CE281092AA048C
:105210000895A4E0B0E0EFE0F9E20C94B6360E9405
:10522000AD3584E70E947D2887E70E947D2806E748
:105230001DE072E1772EE8E0CE2ED12CEE24E3942F
:10524000F12C6624639444E050E0B801CE0101964D
:105250000E94E9362A8130E0C9018497AB80B12CE5
:1052600044E2A41AB108EC81F0E0B497AC0197FFD6
:1052700002C0495F5F4F63E0559547956A95E1F736
:105280002981237030E0729EB001739E700D11244D
:1052900065537A4F4B01840E911CB6010E94E6388B
:1052A000D70102C0AA0FBB1F8A95E2F7CD01D40136
:1052B0009C91892B8C93C501B7FC079653E095957B
:1052C00087955A95E1F7729EA001739E500D1124A7
:1052D00045535A4F4A01880E911CC501B6010E94E0
:1052E000E638A70102C0440F551F8A95E2F7CA01AC
:1052F000D4019C91892B8C93CF01F7FD079643E055
:10530000959587954A95E1F7729EA001739E500D81
:10531000112445535A4F5A01A80EB11CCF01B601B2
:105320000E94E638F70102C0EE0FFF1F8A95E2F7F0
:10533000CF01D5019C91892B8C93F901E151FA4F52
:1053400060820C5F1F4FBEE006331B0709F07BCF66
:1053500060E084E70E944F2861E087E70E944F28C1
:105360002496EEE00C94D236ECE3F6E0438120E1A3
:10537000421B08F440E08181628190E00E94D933B1
:105380000895ECE3F6E0438120E1420F08F44FEF8B
:105390008181628190E00E94D9330895ECE3F6E0C8
:1053A000628120E1621B08F460E08181438190E02A
:1053B0000E94D9330895ECE3F6E0628120E1620FA8
:1053C00008F46FEF8181438190E00E94D933089502
:1053D000ECE3F6E0818190E04381628108970E94CE
:1053E000D9330895ECE3F6E0818190E04381628156
:1053F00008960E94D933089580913C06869586953B
:10540000815009F48EE10E94C033089580913C06DA
:10541000869586958F5F8F3108F081E00E94C033BA
:1054200008951F920F920FB60F9211248F939F939E
:10543000AF93BF938091FA05811113C080919803B7
:1054400090919903A0919A03B0919B034196A11D5D
:10545000B11D8093980390939903A0939A03B093FE
:105460009B03BF91AF919F918F910F900FBE0F90B3
:105470001F901895209106012223C9F020919C03CA
:1054800027FF15C0262F2695269526952E31C8F480
:10549000FC01E20FF11D677081E090E001C0880F10
:1054A0006A95EAF780959281892382830895FC01A9
:1054B00006962281621301C012823196E817F9071D
:1054C000C1F70895209106012223C1F020919C0389
:1054D00027FF14C0262F2695269526952E3130F5C8
:1054E000FC01E20FF11D677081E090E001C0880FC0
:1054F0006A95EAF79281892B82830895FC0132969E
:105500002FEF30E04191641789F02F3F19F44111DA
:1055100001C0232F3F5F3630A9F72F3F39F0FC0140
:10552000E20FF11D27FDFA95628308950895A3E027
:10553000B0E0EDE9FAE20C94C2362091F805309122
:10554000F90528173907A1F09093F9058093F8051C
:10555000E091F605F091F705309751F024E02983AA
:105560009B838A830680F781E02DCE010196099501
:105570002396E2E00C94DE36A3E0B0E0E2ECFAE23F
:105580000C94C2362091F4053091F505281739079F
:10559000A1F09093F5058093F405E091F605F09164
:1055A000F705309751F023E029839B838A83068097
:1055B000F781E02DCE01019609952396E2E00C9447
:1055C000DE36E091F605F091F705309729F001906D
:1055D000F081E02D0995089580E008954115510569
:1055E00011F0FA0109950895CF93DF93EC014A85F4
:1055F0005B856E857F850E94EE2A8B810E948A20C2
:105600008C810E9491200E94982086E0FE011192D8
:105610008A95E9F7DF91CF910895CF93DF93EC015D
:105620008D8181FD17C082608D839091F1058B8102
:10563000892B8093F10590919F038C81892B809316
:105640009F030E949820488559856E857F85CE01ED
:105650000E94EE2A1092F3051092F2058D8180FDD2
:1056600003C0CE010E94F42ADF91CF910895A0E2F9
:10567000B0E0EDE3FBE20C94C2369FEF99838A839E
:10568000CE0101960E941334A096E2E00C94DE361F
:10569000882311F0FA0101C0FB01099508951F93B9
:1056A000CF93DF93FC01EF56FD4F20816223B9F0C9
:1056B000EC010E944532182F0E94453220E8829F5B
:1056C000C00111247FE7790F612F80913F060E946E
:1056D000BE32462F282F672FCE010E942312DF9162
:1056E000CF911F910895A0E0B0E0E9E7FBE20C94B0
:1056F000BD36EC01FC01EF56FD4F9081692349F165
:10570000D0903E0600913F0610913D06E12EF12C0F
:105710000E944532282FC7018C549F4F68E671E0E4
:105720000E94E6388E199F0997FD039695958795F7
:10573000959587952370612F289F600D11247D2DED
:10574000802F0E94BE32462F282F672FCE010E9445
:105750002312CDB7DEB7E7E00C94D9360E94C033F0
:10576000089580913C06837011F410927801809125
:105770003C068C7F816080933C0608950E94092935
:1057800080E090E00E941037863E9E4F21F00E94FC
:105790000C200E94B81781E080933B0648E050E05F
:1057A00068E170E08CE396E00E94F23610923B06CE
:1057B00080913C068C7F11F40E94B81708950F93D6
:1057C0001F93CF930E94AD1D60938A0470938B0446
:1057D00080938C0490938D0420919404211108C02F
:1057E000C0913C062C2F237019F0C695C69501C0B8
:1057F000C0E0209178012130A1F038F0223009F486
:1058000083C0233009F48DC0B7C010927501609336
:10581000330670933406809335069093360681E004
:105820007DC08C2F0E942612CC2309F4A5C0809144
:1058300075018A3009F0A0C08091900483FD9CC05E
:1058400080918E0490918F04A0E0B0E0492F5A2FF0
:105850006B2F7727411551056105710521F4AC01C6
:10586000BD0180E001C088E08A019B01F4E036952B
:10587000279517950795FA95D1F70115110521057B
:10588000310519F08C5FB901A8018A019B01E2E0A2
:105890003695279517950795EA95D1F701151105C6
:1058A0002105310519F08E5FB901A801769567953C
:1058B00057954795452B462B472B09F08F5F843032
:1058C00091F038F4882361F08130A9F481E090E010
:1058D0000CC0853069F0873071F487E090E005C036
:1058E00080E090E002C084E090E00E94230B44C07E
:1058F00085E090E0FACF8091410681113DC040E003
:1059000060E00E94201238C0C093720180913C0672
:105910008370809371010E94F22883E08093780164
:105920002BC080913B06882351F048E050E068E1AD
:1059300070E08CE396E00E94163710923B0640918F
:1059400033065091340660913506709136062FB7B4
:10595000F8948091980390919903A0919A03B09143
:105960009B032FBF841B950BA60BB70B4A97A10572
:10597000B10510F010927801CF911F910F91089509
:10598000A0E0B0E0E6ECFCE20C94BB367C010091B8
:105990008E0410918F048091500490915104082B33
:1059A000192BCFE0D0E0CC24C394D12CC6010C2E0F
:1059B00002C0880F991F0A94E2F780239123892B54
:1059C00021F4219798F7B12C09C0BC2EB7018C2F78
:1059D0000E94D21E0E94EF1E019799F38B2DCDB726
:1059E000DEB7E9E00C94D736CF93DF93EC010E9449
:1059F000C02CBE010E94D21E0E94EF1EDF91CF91EB
:105A000008959E3078F5863068F5E82FF0E086E05E
:105A1000989FE00DF11D11249E2F977083E0F6955D
:105A2000E7958A95E1F7EE0FFF1FEE0FFF1FE55098
:105A3000FA4F40E050E080E0219130E0092E02C0B2
:105A4000369527950A94E2F721703327042E01C07A
:105A5000220F0A94EAF7822B4F5F5F4F44305105C3
:105A600059F7089580E008959E3088F5863078F5DE
:105A7000E82FF0E086E0989FE00DF11D11248E2FB5
:105A8000877051E001C0550F8A95EAF783E0F695DB
:105A9000E7958A95E1F7EE0FFF1FEE0FFF1FE55028
:105AA000FA4F20E030E070E04081CB01022E02C0CE
:105AB000969587950A94E2F78170819584278523CE
:105AC000842781932F5F3F4F2430310569F7089574
:105AD000A0E2B0E0EEE6FDE20C94C0360E94F70AC8
