:100000000C94AA060C94C7060C94C7060C94C70659
:100010000C94C7060C94C7060C94C7060C94C7062C
:100020000C94C7060C94C7060C944B1B0C94061A30
:100030000C94711D0C94C7060C94C7060C94C7064B
:100040000C94C7060C94C7060C94C7060C94C706FC
:100050000C94C7060C94241D0C94C7060C94C70678
:100060000C94C7060C94C7060C94C7060C94C706DC
:100070000C94C7060C94C7060C94C7060C94C706CC
:100080000C94C7060C94C7060C94C7060C94C706BC
:100090000C94C7060C94C7060C94C7060C94C706AC
:1000A0000C94C7060C94C7060C94C706A7141B151E
:1000B000AF1479147D14B3148014B614C1148B14C6
:1000C00011158F14C5149314C914F3149714CD1477
:1000D000FD149D14D314DD148414BA148714BD14B4
:1000E000A214D814E91409150B157514AB142415B2
:1000F0001616161648164816C316F817F817F817E6
:10010000E1166F1780178017411426182B18301826
:1001100035183A183F18441849184E1853184F14F8
:1001200051145A185C184D154D154D154D154D159A
:100130004D1544276B2720296B272029B727DA275D
:100140002029DB28EB283B2F402F4A2F3E2F432F1F
:10015000482F462F002010300050406000312141D0
:10016000006151710012022200423252007262821A
:1001700000130323005343630014042400645474E5
:1001800000150525004535550075658500160626C0
:1001900000463656001707270047375700281838FB
:1001A000005848680039294900695979001A0A2A13
:1001B000004A3A5A0120103001504060013121417B
:1001C00001615171011202220142325201726282B6
:1001D0000113032301534363011404240164547481
:1001E000011505250145355501756585011606265C
:1001F0000146365601170727014737570128183897
:10020000015848680139294901695979011A0A2AAE
:10021000014A3A5A35002B002A00E100E3000000B1
:100220001E00140004001D210F0145001F001A00CC
:1002300016001B00E104340020000800070006003F
:10024000E000215221001500090019002C004A008D
:10025000220017000A000500000065243C0231035B
:1002600000004A00000004523C00310700004D002D
:100270000000E20023001C000B00110000002921F7
:10028000240018000D00100052004B0025000C0047
:100290000E00360050002C00260012000F00370020
:1002A0004F002D0027001300330038315100170193
:1002B00031004C002800E5004C11000029000D061B
:1002C0002A012252060100001E0014010404160A2D
:1002D000130301001F002F0016011B012352010010
:1002E0002000360226022F022B05010021003702D2
:1002F000270230022B08E000220030000A07050127
:100300000000AE0009011901000006010000010013
:100310000B011C0100001D010000AC0023002402A1
:1003200031022E020000AB0024004A0452002E00CD
:1003300001000100250036045000500101000100B9
:10034000260036064F004F0101002D0227004D0404
:10035000510038010100010044000E034C010C0F54
:1003600039000000010001002A0401000100000022
:100370001E02010004060100010001001F02060A1E
:10038000160350051A01340220020C0A01004F0521
:10039000170301002102010001000100010001001A
:1003A000220214030C0105030000010001000100FA
:1003B0000000010000000100010001000000010038
:1003C00000000100230201002B010F0600000100C4
:1003D000240252040F044A064B00010025022F019B
:1003E0005002500750040100010030014F024F0736
:1003F0004F0401000100510412044D064E0001009B
:1004000001004C0701000907010000000100010084
:1004100001000100010000003A000100010001009C
:10042000010001003B00010001000100010001008A
:100430003C00010001000100010001003D0001003D
:1004400001000100010001003E0001000100010067
:100450000000010001000100000001000000010097
:100460000100010000000100000001003F00010048
:100470000100010000000100400001000100010036
:100480000100010041000100010001000100010024
:1004900042000100010001000100010043000100D1
:1004A0000100010001000100010001000100010044
:1004B0000100000001000100010001002A04000009
:1004C0000100010001001D280100010001000100E0
:1004D0000100010001000100010001000100010014
:1004E000010025520100010001000100010001008E
:1004F00001000100010001000000010050040100A2
:1005000000000100000000524F0401000000010043
:1005100000000100010001000100010000000100D5
:1005200001000100010001000100010001000100C3
:1005300001000100010001000100010001000100B3
:100540000100010001000100010038380100010034
:1005500001000100010001004C040000290001001D
:100560002A04E20006010000010036022002220AED
:10057000130A01000100370216081B082652010069
:1005800001002F0226022F002B080100010030027B
:100590002702300035080100010031023500350224
:1005A0000000010009081908000006080000010009
:1005B000090A1D0A00001D08000001000100520088
:1005C00051002402000001000100240052005200EA
:1005D0000100010001002500500050043700010017
:1005E000010026004F004F042700010001002502F2
:1005F000510051002E000100440045004C04010050
:1006000001000000010001000100010001000000E4
:100610003A00010001000100010001003B0001005F
:1006200001000100010001003C0001000100010087
:10063000010001003D000100010001000100010076
:100640003E00010001000100000001000100010066
:100650000000010000000100010001000000010095
:10066000000001003F000100010001000000010046
:1006700040000100010001000100010041000100F3
:100680000100010001000100420001000100010021
:100690000100010043000100010001000100010010
:1006A0000100010001000100010000000100010043
:1006B00001000100E0000000010001000100010054
:1006C0000100010001000100010001000100010022
:1006D0000100010001000100010001000100010012
:1006E0000100010001000100010001000100010002
:1006F00000000100010001000000010000000100F5
:1007000001000100000001000000010001000100E3
:1007100001000100000001000100010001000100D2
:1007200001000100010001000100010001000100C1
:1007300001000100010001000100010001000100B1
:1007400001000100010001000100010001000100A1
:100750000100000005010980A101850319012AB7E4
:1007600000150126B700950175108100C0050C0920
:1007700001A101850419012AA002150126A00295F4
:100780000175108100C005010906A1018506050754
:1007900019E029E715002501950875018102050773
:1007A000190029EF1500250195F075018102050852
:1007B00019012905950575019102950175039101AE
:1007C000C00660FF0961A1010962150026FF0095BE
:1007D00020750881020963150026FF009520750821
:1007E0009102C005010906A101050719E029E715D5
:1007F00000250195087501810295017508810105A3
:1008000007190029FF150026FF00950675088100CD
:1008100005081901290515002501950575019102A5
:10082000950175039101C009025B00030100A0FA64
:100830000904000001030101000921110100012246
:1008400044000705810308000109040100020300B8
:100850000000092111010001222200070582032066
:100860000001070503032000010904020001030041
:100870000000092111010001226D000705840320F9
:1008800000011201000200000008973276490001C1
:1008900001020301180377006F004A006E0039005F
:1008A0002F00640047005200570058000000160354
:1008B0004500720067006F0064006F007800200040
:1008C00045005A00000028035A0053004100200050
:1008D00054006500630068006E006F006C006F00DC
:1008E0006700790020004C00610062007300000086
:1008F00004030904000101010101010101010202D7
:1009000002020202020202030303030303030304BD
:100910000404040404040505050505060606060688
:10092000070707070708080808090909090A0A0A42
:100930000B0B0B0C0C0C0D0D0D0E0E0E0F0F0F10E4
:10094000101111111212131314141515161617176E
:10095000181819191A1A1B1B1C1D1D1E1E1F2020DA
:10096000212222232424252626272829292A2B2C24
:100970002D2D2E2F30313232333435363738393A47
:100980003B3C3D3E3F404142434445464748494A3F
:100990004C4D4E4F50515354555658595A5B5D5E0D
:1009A0005F616264656668696B6C6D6F70727375A8
:1009B00077787A7B7D7E8082838587888A8C8E8F0C
:1009C00091939596989A9C9EA0A2A3A5A7A9ABAD3A
:1009D000AFB1B3B5B7BABCBEC0C2C4C6C9CBCDCF28
:1009E000D1D4D6D8DBDDDFE2E4E7E9EBEEF0F3F5D6
:1009F000F8FAFDFF0000FF0000FF0000FF0000FF0D
:100A00000000FF0000FF0000FF0000FF0000FF00EB
:100A100000FF0000FF0000FF0000FF0000FF0000DB
:100A2000FF0000FF0000FF0000FF0000FF0000FFCC
:100A30000000FF0000FF0000FF0000FF0000FF00BB
:100A400000FF0000FF0000FF0000FF0000FF0000AB
:100A5000FF0000FF0000FF0000FF0000FF0000FF9C
:100A60000000FF0000FF0000FF0000FF0000FF008B
:100A700000FF0000FF0000FF0000FF0000FF00007B
:100A8000FF0000FF0000FF0000FF0000FF0000FF6C
:100A90000000FF0000FF0000FF0000FF0000FF005B
:100AA00000FF0000FF29FFFF4AFFFF4AFFFF29FF69
:100AB000FF0000FF0000FF60DACC60DACC0000FF2E
:100AC0000000FF0000FF0000FF0000FF0000FF002B
:100AD00000FF0000FF0000FF0000FF0000FF8BE4AC
:100AE000D38BE4D3D9C0C8D9C0C80000FF60DACC2A
:100AF00060DACC0000FF0000FF0000FF00F5F50009
:100B0000F5F50000FF0000FF0000FF0000FF0000FF
:100B1000FF0000FF000000000000000000000000D7
:100B200000000000000000000000000000000000C5
:100B300000000000000000000000000000000000B5
:100B400000000000000000000000000000000000A5
:100B50000000000000000000000000000000000095
:100B60000000000000000000000000000000000085
:100B70000000000000000000000000000000000075
:100B80000000000000000000000000000000000065
:100B90000000000000000000000000000000000055
:100BA0000000000000000000000000000000000045
:100BB0000000000000000000000000000000000035
:100BC0000000000000000000000000000000000025
:100BD0000000000000000000000000000000000015
:100BE0000000000000000000000000000000000005
:100BF00000000000000000000000000000000000F5
:100C000000000000000000000000000000000000E4
:100C100000000000000000000000000000000000D4
:100C200000000000000000000000000000000000C4
:100C3000000000000000FF0000FF0000FF0000FFB8
:100C40000000FF0000FF0000FF0000FF0000FF00A9
:100C500000FF0000FF0000FF0000FF0000FF000099
:100C6000FF0000FF0000FF0000FF0000FF0000FF8A
:100C70000000FF0000FF0000FF0000FF0000FF0079
:100C800000FF0000FF0000FF0000FF0000FF000069
:100C9000FF0000FF0000FF0000FF0000FF0000FF5A
:100CA0000000FF0000FF0000FF0000FF0000FF0049
:100CB00000FF0000FF0000FF0000FF0000FF000039
:100CC000FF0000FF0000FF0000FF0000FF0000FF2A
:100CD0000000FF0000FF0000FF0000FF0000FF0019
:100CE00000FF0000FF29FFFF4AFFFF4AFFFF29FF27
:100CF000FF0000FF0000FF60DACC60DACC0000FFEC
:100D00000000FF0000FF0000FF0000FF0000FF00E8
:100D100000FF0000FF0000FF0000FF0000FF8BE469
:100D2000D38BE4D3D9C0C8D9C0C80000FF60DACCE7
:100D300060DACC0000FF0000FF0000FF00F5F500C6
:100D4000F5F50000FF0000FF0000FF0000FF0000BD
:100D5000FF0000FF11241FBECFEFDAE0DEBFCDBFE2
:100D600012E0A0E0B1E0EAE6F3E702C005900D92E0
:100D7000A038B107D9F726E0A0E8B2E001C01D9283
:100D8000A63AB207E1F70E945E0E0C94B3390C94B8
:100D90000000A3E0B0E0EFECF6E00C949036782E83
:100DA0008091180187110DC020913906237030E021
:100DB0004091170150E081E02417350719F480E0D5
:100DC00001C081E081708093130180913E06909173
:100DD0001201981739F08093120140E060E080E042
:100DE0000E94052CF7E17F129DC0809111010E94A5
:100DF000C031192F90911301911121C060913D06CE
:100E000020E1620F08F46FEF80910B0690910C06C1
:100E10000E94BF2C6AE070E00E947C36892B39F575
:100E20000E94502CE0E38E9F9001112460911201EA
:100E3000832F932F990F990B0E94853118C0282F6B
:100E400030E03B832A83E12EF12C8A819B818E1531
:100E50009F056CF4609112018A819B810E9485310B
:100E60004A815B814F5F5F4F5B834A83EECF91E0A6
:100E7000998331C0871508F49FC398E1791250C354
:100E8000809111010E94C031192F9091130191118D
:100E90002EC360913D0620E1620F08F46FEF809150
:100EA0000B0690910C060E94BF2C65E070E00E943A
:100EB0007C36892B71F40E94502CA0E38A9F90010C
:100EC000112460911201832F932F990F990B0E9487
:100ED000613151E05983103380F00EC0471508F49A
:100EE0001EC17110DFC080911301882329F040E0FA
:100EF00060E080E00E94052C1982809111018F5FD3
:100F000080931101E981E111D5C682E0809314013B
:100F1000809113018111CEC67110CCC683E08093FD
:100F20001401C8C6F71508F4CFC12BE072120CC02B
:100F300083E99BE205C02AE07212EBC08FEA9BE2D4
:100F40000E9498258983D9CF271508F473C135E00D
:100F5000731248C0809111010E94C0319A83898325
:100F600000913A0610913B06F0903C0660913D06D8
:100F700066956695669580910B0690910C060E9489
:100F8000BF2C0E940B2C805887FD8195880F382F2D
:100F90004F2D349F312D1124832FB8010E94DC2C5A
:100FA000162F072FF82E9A81A981A917A8F4598125
:100FB000E52FF0E0DF01AA5DBD4F8C919091120109
:100FC000982331F02F2D412F602FCF010E94082C44
:100FD00089818F5F8983E7CFB1E0B983903308F4CB
:100FE0008CCF8ACF371508F407C142E0741276CF50
:100FF000809111010E94C0319A83898300913B0640
:1010000010913C06F0903A066F2D702F812F0E94B0
:10101000DC2CE62ED72EC82E60913D066F0D702F6A
:10102000812F0E94DC2C162F072FF82EEA81F981E0
:10103000FE1790F5A9818A2F90E0FC01EA5DFD4F33
:10104000308120911201232359F030FF04C02F2D4D
:10105000412F602F03C02C2D4E2D6D2D0E94082C8A
:10106000B981BF5FB983E2CF94E0791252C0809119
:1010700011010E94C0319A83898300913B06D09070
:101080003C0620913D0610E4129F112D1124EA81A7
:10109000F981FE1708F486C021E02983E03308F4C3
:1010A0002CCF2ACF51E0751234C0809111010E94DB
:1010B000C0319A83898360913A0670913B06809192
:1010C0003C060E94DC2C162F072FF82E4A815981EE
:1010D0005417A8F42981E22FF0E0DF01AA5DBD4F8B
:1010E0008C9190911201982331F02F2D412F602F78
:1010F000CF010E94082C39813F5F3983E7CF81E01F
:101100008983403308F4F9CEF7CEECE17E1609F47A
:1011100059C2809111018F5F80931101F6CE83E057
:101120007812A2CF809111010E94C0319A838983E5
:1011300000913B06D0903C0620913D0610E4129FA2
:10114000112D11245A818981851730F53981E32EBB
:10115000F12CF701EA5DFD4F908180911201892306
:10116000B9F0F701EE0FFF1FE953FE4F8081829522
:101170008F7060913A06819F600D1124702F8D2D24
:101180000E94DC2C462F282F672FC7010E94082CB5
:1011900049814F5F4983D6CF91E09983503308F45A
:1011A000ACCEAACEA981EA2EF12CF701EA5DFD4F63
:1011B0009081809112018923D9F0F701EE0FFF1F72
:1011C000EA53FE4F6081169FB0011124B5E075957A
:1011D0006795BA95E1F780913A06680F702F8D2DCB
:1011E0000E94DC2C462F282F672FC7010E94082C55
:1011F000B981BF5FB9834BCFA8E07A1203C088EEF4
:101200009BE207C0A71540F4F9E07F1294CE8AEC68
:101210009BE20E94FF2596CEB6E07B1203C080E1E0
:101220009BE205C0E7E07E1274CF84EE9AE20E9452
:10123000042588CE31E1731203C086E99CE2E9CF30
:10124000371500F14EE0741203C080ED9AE2EFCF43
:10125000471560F05CE0751203C082EE9AE2E7CFBA
:101260008DE0781256CF89ED9AE2E1CF9FE07912B6
:1012700003C085EB9AE2DBCFA0E17A124ACF86EA7F
:101280009AE25ECEB4E17B1203C088E79AE207C01F
:10129000B71540F425E1721211C086E49AE20E946B
:1012A000482550CEE2E17E1203C082E89BE2B1CF36
:1012B000F3E17F122ECF8EE69BE242CE36E173122F
:1012C00028CF88E09AE2EBCF43E274121BC08091F2
:1012D0000F0621E0382F321B08F430E0832F60ED39
:1012E00079E20DC0B5E27B1214CF80910F0621E0A8
:1012F000482F421B08F440E0842F68E979E20E94FD
:10130000032420CE471508F421C45DE17512E6C020
:1013100040914603509147036091480370914903FF
:1013200080910B0690910C06A0910D06B0910E06CF
:1013300084179507A607B70708F4DECD809113013F
:10134000811107C0809111010E94C031092F89834A
:1013500057C040E060E080E00E94052C00E010E013
:101360000E94502CD801AA0FBB1FAA0FBB1FBB8322
:10137000AA8381FF08C0AA57BD4FFD0110821182C8
:10138000128213821DC00E94502CF82E0E94502CF5
:10139000F0E88F9FC00111247FE7790F2A813B81FC
:1013A0002A573D4F3B832A836F2D80913C060E9434
:1013B000DC2CAA81BB816D937D938D939C931397B5
:1013C0000F5F1F4F0033110559F6BCCFB9818B2F2A
:1013D00090E0FC01EA5DFD4F308120911201232352
:1013E00061F0FC01EE0FFF1FEE0FFF1FEA57FD4FEC
:1013F0002281408161810E94082CE981EF5FE983AD
:10140000F981F01718F321E02983003308F01982DD
:10141000003308F472CD20E010E001501109822F52
:1014200090E080179107CCF4DC01AA0FBB1FAA0F34
:10143000BB1FAA57BD4F880F991F880F991FFC012A
:10144000E657FD4F40815181628173814D935D93D9
:101450006D937C9313972F5FE2CF0E94502C000F67
:10146000111F000F111F81FF08C0F801EA57FD4F3F
:10147000108211821282138218C00E94502C8A831B
:101480000E94502C30E8839FC00111247FE7790F20
:101490000A571D4F6A8180913C060E94DC2CD801BE
:1014A0006D937D938D939C9313970E94C92C00910B
:1014B0000B0610910C0620910D0630910E06DC01F2
:1014C000CB01800F911FA21FB31F809346039093FF
:1014D0004703A0934803B09349030FCD571508F471
:1014E000E7C08AE17812C6CC8CE29CE2A0CEE82F5D
:1014F000F0E0FB83EA83E12EF12C4A815B814E15FB
:101500005F050CF0E6CC609112018A819B810E94FC
:1015100061312A813B812F5F3F4F3B832A83EDCF8F
:10152000A9E17A12F6CD809111010E94C0319A830F
:10153000898300913B0610913C06F0903A06609139
:101540003D0666956695669580910B0690910C0612
:101550000E94BF2C0E940B2C805887FD8195880F1C
:10156000682F2CE0629F612D11246F0D702F812F49
:101570000E94DC2C162F072FF82EAA81B981BA17EA
:10158000A8F48981E82FF0E0DF01AA5DBD4F8C91BE
:1015900090911201982331F02F2D412F602FCF0110
:1015A0000E94082C99819F5F9983E7CFE1E0E9834E
:1015B000A03308F4A2CCA0CCBBE17B12A6CD87EF70
:1015C00099E235CE809111010E94C031192F4091CE
:1015D0000B0650910C0660910D0670910E068091DD
:1015E000820290918302A0918402B09185028417B7
:1015F0009507A607B70708F058C00E94502CF0E3E3
:101600008F9FC0011124292F332727FD3A953B8353
:101610002A83F901EA5DFD4F9081809112018923AF
:1016200009F443C00E94502C81FD0EC00E94502C32
:10163000082F0E94502C30E8839FC00111247FE7BF
:10164000790F80913C0603C080E070E000E0602FDD
:101650000E94DC2C462F282F672F8A819B810E94B5
:10166000082C20913D0630E1230F08F42FEF60E1B4
:10167000822F90E00E94BF2CBC0184EF91E00E9479
:101680007C3680910B0690910C06A0910D06B091CE
:101690000E06860F971FA11DB11D809382029093A5
:1016A0008302A0938402B093850241E0498313CC66
:1016B000F0E27F12C6C060903C0683E0689EA00105
:1016C000112456954795569547955B834A839A8191
:1016D0009983862C912C8FEF90E0B4010E9483397E
:1016E000362E80911301882371F040E060E080E0A5
:1016F0000E94052C84E5EDE7F3E0DF011D928A9559
:10170000E9F710927C0380917B038F5F80937B03CA
:101710003DE7E32E33E0F32E42E7A42E41E0B42E62
:1017200053E8452E53E0552EEA81FB818E1A9F0A1D
:1017300087016501212C21100CC080917C0381114F
:1017400008C00E941337853595401CF4D7016C9270
:101750000CC0F8018081882341F0861530F4909107
:101760007B03391202C081508083D601EC91EF3F98
:1017700029F1D8012C91F0E0B981B21790F430E052
:101780004A815B81241B350B249FC001259F900D4E
:10179000349F900D1124B4010E947C36262F462DD3
:1017A0000AC0629EC00111246A817B810E947C363E
:1017B000462F20E060E0CF010E94082C239456E0E1
:1017C000C50ED11C0A5F1F4F8EE02812B4CF9FEFC9
:1017D000E91AF90AAFEFAA1ABA0A4E145F0409F01F
:1017E000A7CF80917B03381202C010927B038091B7
:1017F0007C038F5F8D3118F480937C037DCB109236
:101800007C0325EC33E08DE041ED53E09FEF960D36
:10181000ABECB3E0F9018D3021F46C91661201C09C
:101820009C936081661510F09083668231961196C4
:101830004A175B0781F78150265031098111E8CFA3
:101840005BCBF71508F474C12EE17212CAC0809107
:101850001301882329F040E060E080E00E94052C1D
:10186000809111010E94C031392E40910B06509198
:101870000C0660910D0670910E0680917403909194
:101880007503A0917603B091770384179507A60797
:10189000B70708F09FC060913A0670913B068091AF
:1018A0003C060E94DC2C662E572E482E0AE413E0DC
:1018B000E2E7F1E0FB83EA83B6EC8B2EB1E09B2EEE
:1018C000AA80BB8065017801212CD7018C91F6019B
:1018D000882371F08081242D462D652D90E00E9493
:1018E000082CD50115968C91242D462D652D0DC003
:1018F000808120E040E060E090E00E94082CD5016B
:1019000015968C9120E040E060E090E00E94082C69
:10191000F7018181D7018D937D012394BFEFCB1A0D
:10192000DB0AE1E0AE1AB108F2E02F12CECFD80107
:1019300012968C91EA81FB81882379F08281242D93
:10194000462D652D90E00E94082CAA81BB8113963C
:101950008C91242D462D652D0EC0828120E040E023
:1019600060E090E00E94082CAA81BB8113968C91C4
:1019700020E040E060E090E00E94082C0E94502CA3
:10198000837091E009F090E0F80192830D5F1F4FA2
:101990002A813B812A5F3F4F3B832A83821693062D
:1019A00009F08ECF0E94C92C00910B0610910C06F5
:1019B00020910D0630910E06DC01CB01800F911FA6
:1019C000A21FB31F8093740390937503A0937603B3
:1019D000B093770331E039834FE2431508F08DCAA5
:1019E0008BCA3FE1731295CB809111010E94C031E7
:1019F000282E492E80911301882361F040E060E099
:101A000080E00E94052C84E5EDE7F3E0DF011D9204
:101A10008A95E9F780911101811115C080917903B0
:101A200090917A030E944A1D21E08931910508F4C2
:101A300020E020937803499730F00E94651D909331
:101A40007A038093790372E7C72E71E0D72EEDE712
:101A5000EE2EE3E0FE2EFBEC8F2EF3E09F2E512CBA
:101A6000AAEA3A2E00E010E0F601E00FF11FB08183
:101A7000B983B21508F442C0B41508F03FC05394BE
:101A8000EB2FF0E0FB83EA83EA5DFD4F90818091CC
:101A90001201892309F432C05701A00EB11ED501ED
:101AA0006C90362D25E5321B08F430E070913B0632
:101AB000232D462D240F08F42FEF40913C0652E0D1
:101AC000259F200D11242E5F249F212D1124632D8D
:101AD000631B822F0E94DC2C462F282F672F8A81C0
:101AE0009B810E94082C80917803882339F0262D51
:101AF00031E0231B08F420E0D5012C930F5F1F4F2A
:101B00000630110509F0B0CF8E149F0451F0B6E0F5
:101B1000CB0ED11CE6E0EE0EF11CF4E0F51508F05A
:101B2000A1CF21E029833FE2341508F0E6C9E4C9DA
:101B300041E2741203C080EF99E205C052E27512CF
:101B4000E8CA89EE99E20E949A24FCC989E27812D7
:101B50000BC080910F0621E0382F321B08F430E0D3
:101B6000832F6EE479E2CBCB871518F196E27912D8
:101B700003C068E979E207C0971538F0A4E27A1249
:101B8000B1CB60ED79E280E0BACBE7E27E120BC028
:101B900080910F0621E0582F521B08F450E0852F4A
:101BA00066E679E2ACCBF8E27F12B3CA66E679E288
:101BB000EACF2CE2721203C068E379E2E4CF271582
:101BC000A0F03AE2731203C06EE479E2DCCF4BE29C
:101BD00074129FCA80910F0621E0482F421B08F41F
:101BE00040E0842F68E379E28ACB5DE275122EC073
:101BF000809111010E94C0319A83898360913C06D3
:101C000070E080E090E00E94883820E030E04FE70C
:101C100053E40E94E7376B017C019A81A981A917DF
:101C200008F0DAC920E030E0A901C701B6010E943E
:101C300016390E945938262F462F5981852F90E05A
:101C40000E94082C89818F5F8983E7CF8FEF7812FC
:101C500060CA80910B0690910C06A0910D06B09180
:101C60000E0688279C70AA27BB272AE0B695A79561
:101C7000979587952A95D1F782309105A105B105F1
:101C800071F083309105A105B10569F040E001973D
:101C9000A105B10511F060E008C064E102C044E1B3
:101CA00060E080E003C044E164E184E10E94052C2F
:101CB00082E035C92396E2E10C94AC36A3E5B0E0AE
:101CC000E4E6FEE00C94903685B7806885BF85B762
:101CD000806885BF84B7877F84BF0FB6F894A895C6
:101CE00080916000886180936000109260000FBE58
:101CF00090E080E80FB6F8948093610090936100C3
:101D00000FBE8DE59EE190938102809380020E9438
:101D10004A1A0E94F01A8091E20084608093E200E7
:101D20007894809101068823A1F01091E9001F703A
:101D30009091EC00892F817090FD80E8182B109213
:101D4000E9008091E80083FD0E9461261F701093D6
:101D5000E90082E084BD93E095BD9AEF97BD809342
:101D60006E000E94893090E090930F0180930E01E5
:101D70000E94FE2F0E946430E1EDF3E08FED93E0CE
:101D8000A1EEB3E011921D928E179F07D9F780E064
:101D900090E00E944A37853E9E4F09F471C065EE7F
:101DA0007EEF80E090E00E947E3760E082E090E08D
:101DB0000E94603781E090E09093E0038093DF031E
:101DC00061E083E090E00E94603760E074E184E0CD
:101DD00090E00E947E3760E086E090E00E946037ED
:101DE00060E087E090E00E94603740E050E0BA0198
:101DF00088E090E00E94723760E083E290E00E9409
:101E0000603760E08CE090E00E94603760E08DE039
:101E100090E00E94603719821A821B821C821D8208
:101E20001E821F82188648E050E067E170E0CE0114
:101E300001960E94503740E050E0BA018FE190E0F7
:101E40000E947237109275061092760610927706ED
:101E50001092780684E08093750640917506509143
:101E6000760660917706709178068FE090E00E9488
:101E7000723740E050E0BA0183E190E00E9472378F
:101E800082E090E00E943C378093EF0384E090E092
:101E90000E944A3790937B0580937A050E945F23C6
:101EA0003FEF43EF51E0315040405040E1F700C078
:101EB00000000E945F238091E10380FF08C06FEF64
:101EC0007FEF80E090E00E947E370E94F21C83E06A
:101ED00090E00E943C3790E00E94D53380917306D9
:101EE000909174060E94132F0E94201910920F06E1
:101EF000E8E2F6E08FEF9FEF81939193A6E0E8335D
:101F0000FA07D1F710924606EFE5F6E08FEF9FEF64
:101F100081939193B6E0EF36FB07D1F781E0809390
:101F2000380648E050E067E170E089E396E00E94FF
:101F30002C3710923806809139068C7FF9F485E3AE
:101F4000809339068091190190911A01A0911B018B
:101F500080933A0690933B06A0933C068FE78093CC
:101F60003D068FEF80933E0648E050E067E170E069
:101F700089E396E00E9450371092380689EA8093F0
:101F8000800089E08093810024982C983F98479A9C
:101F900054985C9A55985D9A6E98769A259A269AE6
:101FA000279A569A8FE090E00E9444376093750616
:101FB00070937606809377069093780667701FEF8C
:101FC000169FC001112495958795959587950E9438
:101FD000782F5E98109289001092880010928B00E2
:101FE00010928A0010928D0010928C008FEF0E9448
:101FF000782F0E940B2FEFEFF0E722E0E150F04046
:102000002040E1F700C000000E94032F3FEF40E7AF
:1020100052E0315040405040E1F700C000000E94C3
:10202000FB2E8FEF90E7A2E081509040A040E1F7B7
:1020300000C000001092890010928800BFEFE0E716
:10204000F2E0B150E040F040E1F700C00000109233
:102050008B0010928A002FEF30E742E02150304091
:102060004040E1F700C0000010928D0010928C00FB
:10207000809175068770189FC001112495958795EA
:10208000959587950E94782F5E98109289001092FE
:10209000880010928B0010928A0010928D0010928E
:1020A0008C0080913906883B18F080E00E94EA237A
:1020B00080913906837011F41092140180913906D1
:1020C0008C7F81608093390680913806816080938F
:1020D000380684E091E090937705809376058091AF
:1020E0000106853009F073C030E4E32E0FEE13E0F3
:1020F000DD24D39443E0C42E50E1F52E80910106F7
:10210000853009F05EC080910106843009F438C042
:102110000E94CA318091790681110DC00E94C906C2
:1021200010921801809139068370809317010E94E4
:102130007118C0921401D092790610927C0588E142
:1021400090E00FB6F894A895809360000FBEE092DF
:10215000600083B7817F846083BF83B7816083BF62
:102160007894889583B78E7F83BF0FB6F894A8952F
:1021700080916000886180936000109260000FBEC3
:1021800080910006882309F4B9CF0E94893090E03D
:1021900090930F0180930E010E94FE2F0E946430E5
:1021A000E1EEF3E011920E171F07E1F70E945F23A3
:1021B000E1EEF3E081918111B5C20E171F07D1F74F
:1021C0009DCF0E94FD330E94491E109279060E9405
:1021D0005F23A0EFB3E02A96BFAFAEAF2A97A1EE80
:1021E000B3E0E0EFF3E091918D91892723E0EE3F9A
:1021F000F20719F08823B9F305C0811103C00E94CA
:102200003B239EC12DE7222E23E0322E42E751E0F0
:102210002C965FAF4EAF2C9781EE93E060969FAF08
:102220008EAF6097D12C6096AEADBFAD60977D90BC
:102230006096BFAFAEAF60972A96EEADFFAD2A971E
:10224000A080A7242E96AFAE2E97AA2009F45BC1DA
:1022500051012C964EAC5FAC2C97C12C6624639434
:102260002E968FAD2E97862109F43DC1862C8720AE
:102270002296CFAE22972396DFAE23970E94651D4C
:1022800025969FAF8EAF259781E026968FAF269734
:1022900091E0811001C090E027969FAF279722968A
:1022A0004FAD229723965FAD239724966FAD249769
:1022B00025967FAD259726968FAD26970E94D42D23
:1022C000882051F0D2018C918F3F31F02D968FAF45
:1022D0002D979924939401C0912C092D10E08091A1
:1022E0004606F801E80FF11D3997ACF188E090E05F
:1022F0007C01E01AF10AB8016F5F7F4F6A5B794F8A
:10230000A70187E496E00E94AA39B801675F7F4F72
:102310006A5B794FA7018FE496E00E94AA39A70172
:10232000440F551FB801660F771F675E7F4F6A5BCA
:10233000794F8FE596E00E94AA39B8016F5E7F4F12
:102340006A5B794FA70187E596E00E94AA3988E089
:102350008919809346068091460690E02D96FFAD40
:102360002D97AF2FB0E09D01220F331F2A533E4F10
:10237000AA0FBB1FBD0169537E4F41E0480F99155D
:10238000C0F490E0FC01EA5BF94FD9015C91518304
:10239000DB015C9151872D96BFAD2D97B18B880FD6
:1023A000991FFC01EA5BF94F128E118E91E0842F88
:1023B000E4CF80934606882009F495C080913906C1
:1023C0008C7F8C3709F08FC0F20180818F3F09F438
:1023D0008AC072E7872E71E0972EEDE7EE2EE3E0DC
:1023E000FE2E28961FAE289790E09C01220F331FE7
:1023F000A9014A535E4F62965FAF4EAF6297D90113
:10240000A953BE4F6496BFAFAEAF649700E010E033
:10241000F401E00FF11F80818F3F09F44EC0289630
:10242000BFAD2897DB120AC0C01208C0F501208199
:1024300030E2230F08F42FEF20833FC090E0629634
:10244000EEADFFAD6297408150E0FC01EE0FFF1F43
:10245000EA53FE4F2081421B51096496AEADBFADD9
:1024600064972C9130E0880F991FFC01E953FE4FCF
:102470008081281B3109449FB001459F700D700D6C
:102480001124229FC001239F900D900D1124860FCF
:10249000971F0E94652C893280F428E2382F231B75
:1024A00008F420E0F701E00FF11F213108F020E1EE
:1024B0003081320F08F43FEF30830F5F1F4F06303B
:1024C000110509F0A5CF28964FAD28974F5F2896A4
:1024D0004FAF289756E0E50EF11C86E0880E911C60
:1024E0004E3009F093CFC394660C9FEF491A590AF6
:1024F000AFEFAA1ABA0AB6E0CB12B2CE2A96EEAD68
:10250000FFAD2A977082D3942A962EAD3FAD2A97BD
:102510002F5F3F4F2A963FAF2EAF2A972C964EAD96
:102520005FAD2C974A5F5F4F2C965FAF4EAF2C97F5
:1025300056E0250E311C8EE0D81275CE0E94591D32
:102540000E94CA310E94491E9091FE03891721F012
:102550008093FE030E94591D80910106843009F08A
:10256000BECD83E08093E9008091E80082FFB7CD83
:102570008091E80085FF22C00E94691A81111CC069
:1025800000E210E07E0191E2E90EF11C08C08091AA
:10259000F100D7018D937D010150110969F08091FF
:1025A000E80085FDF4CF8091E8008B778093E80008
:1025B0000E94691A882399F391E001C090E080910C
:1025C000E8008B778093E800992309F488CD89A1EE
:1025D000863009F47EC0A8F4823009F480CD58F426
:1025E000882321F1813009F099C08093FF0384E0B2
:1025F00089838EEF89C0843031F1853009F469C058
:102600008DC0893009F465C030F4873099F1883085
:1026100009F45FC083C08A3009F45DC08E3F09F0C1
:102620007DC0898394E09A838B836FC019828CE08C
:10263000ECE1F1E0DE01129601900D928A95E1F74E
:102640008EEF8D8762C08091FF03882309F447CD08
:102650008AA1811104C08BA10E94B33340CD81E0D7
:1026600090E00BA002C0880F991F0A94E2F70E9425
:10267000AC3335CD81E0809301048AA18230E1F052
:1026800030F5882319F0813061F021C08BA18823B7
:1026900019F00E940B2F23CD109289001092880010
:1026A0001ECD8BA1882319F00E94032F18CD109204
:1026B0008B0010928A0013CD8BA1882319F00E9401
:1026C000FB2E0DCD10928D0010928C0008CD85E070
:1026D00026C084E024C08AA191E0811101C090E06D
:1026E0009093010481110CC010928900109288000F
:1026F00010928B0010928A0010928D0010928C0024
:102700008BE08983809101048A8340E250E0BE011E
:102710006F5F7F4F82E00E94801CE1CC8FEF0E94B0
:102720009D2FDDCCF9BC82E189BD09B400FEFDCF4F
:102730008091D8008F7D8093D8008091E0008260E6
:102740008093E0008091E00081FDFCCF0E94FD338A
:10275000D5CCA0E0B0E0EFEAF3E10C949936FC01AF
:102760008481882309F4B4C47F0121E04081518130
:102770006281738195810E94AF2DEC01F701858103
:10278000C115FEE7DF0751F0C1302EE7D207B9F1DE
:10279000C03298E7D90709F06CC053C0882309F408
:1027A00084C09091750681E0890F8770987F85308D
:1027B00020F4892B8093750602C090937506809152
:1027C00075068770EFEF8E9FC00111249595879550
:1027D000959587950E94782F4091750650917606C1
:1027E00060917706709178068FE090E00E947237D2
:1027F00080917306909174060E94132F56C088230F
:1028000009F453C08091750683FB222720F991E0DB
:10281000922790FB83F980937506992329F040E075
:1028200060E080E00E94052C40917506509176068C
:1028300060917706709178068FE090E00E94723781
:1028400034C0882309F429C190913E06809138064E
:102850009F3F59F410923E0681608093380640E015
:1028600060E080E00E94052C18C19FEF90933E0627
:1028700012C0C230FEE7DF07C1F4882309F40DC19E
:102880000EC09091390681E0892780933906109215
:10289000140180913806816080933806FEC081E083
:1028A00001C085E00E94EA23F8C0F70185818823F2
:1028B00009F458C1CE019057839708F0DBC084E03B
:1028C00090E00E944A3790937B0580937A05FE0141
:1028D000E150F047E232F10520F4EA5AFF4F0C9440
:1028E000973980917A058160ACC080917B058860C2
:1028F000B4C080917A058260A4C080917A0520C01E
:1029000080917A0588609DC080917B051EC0809172
:102910007B058260A2C080917A05806192C080911F
:102920007A0580628EC080917A0580648AC00E9498
:10293000FD3380917A05806884C080917A05886033
:1029400084607FC080917B058260816086C08091B9
:102950007A058E7F76C080917B05877F7EC08091CF
:102960007A058D7F6EC080917A0520C080917A05AE
:10297000877F67C080917B051EC080917B058D7F1E
:102980006CC080917A058F7E5CC080917A058F7DC6
:1029900058C080917A058F7B54C00E94FD3380918E
:1029A0007A058F774EC080917A05877F8B7F49C0EB
:1029B00080917B058D7F8E7F50C080917A0582FB50
:1029C000222720F991E0922790FB82F990FB83F96E
:1029D00038C080917B05982F909591708E7F892BC0
:1029E00090FB81F93AC080917A0586FB222720F975
:1029F00091E0922790FB86F924C00E94FD338091DC
:102A00007A0587FB222720F991E0922790FB87F92E
:102A100018C061E001C060E08EE090E00E94603785
:102A20001EC080917A0584FB222720F991E092272D
:102A300090FB84F906C080917A05982F909590FBC1
:102A400080F980937A050BC080917B0583FB222758
:102A500020F991E0922790FB83F980937B056091A8
:102A60007A0570917B0584E090E00E947E370E9499
:102A7000FD3313C0C631FCE7DF0709F58091EE0591
:102A80008A7A91E009F490E0909302048111D8C20F
:102A900089E20E94C81D0E94D1208091C3058770E1
:102AA00009F416C3F7018581882309F411C38091C5
:102AB0007B0582FF0DC382E00E94232109C3C3303E
:102AC0002CE7D20779F190F4C1159CE7D907E1F022
:102AD000C130DC4709F055C00E94FD332FEF84E37D
:102AE0009CE0215080409040E1F72BC0CB35FCE7C3
:102AF000DF07A1F1CC352CE7D20741F1CA35DC471D
:102B000009F03FC081E02BC00E94FD339FEFE4E35A
:102B1000FCE09150E040F040E1F700C000000E946E
:102B2000F21CBBCF6FEF7FEF80E090E00E947E371A
:102B30000E94FD33EFEFF4E32CE0E150F040204041
:102B4000E1F700C000000E94E71CA7CF80917B0541
:102B500082FB882780F991E0892701C080E00E94EC
:102B60003A210FC0C6312CE7D20709F4A7C28091E1
:102B7000EE058272FE01E052F847E531F10508F4F6
:102B800061C2F7018581C081D181882349F0CE01DE
:102B90000E940433182F682FCE010E94783304C09E
:102BA000CE010E944533182FBE01812F0E94901F35
:102BB0000E94AD1FD82FC92FC82EF701158106819D
:102BC00002950F708091C305877001F11123F1F018
:102BD000892F807F803469F080E28D0F8830B0F0DB
:102BE000892F807E803229F4F1E0FD1778F40023EC
:102BF00069F080917B0582FF09C082E00E94232159
:102C00008091C3058770DD24D3948111D12CBC2E13
:102C1000B2948FE0B8228B2D90E08C30910508F0B3
:102C2000E7C1FC01E858FF4F0C9497398C2F807F47
:102C3000CF70882311F0C295C07F1123B9F0CC2347
:102C400009F4C4C180E28D0F883010F0C11006C0B5
:102C50009091EE05C92BC093EE0505C09091C50576
:102C6000C92BC093C5050E94D120B0C18D2F0E94F1
:102C70003034CC2309F4BCC1D05ED83080F1CC20F4
:102C800071F1C0959091C505C923C093C5052AC0AF
:102C90008C2F807FCF70803211F0C295C07FCC2006
:102CA00029F021E0C21609F44CC054C080917B0584
:102CB00082FD1BC0112369F0CC2339F09091EE0501
:102CC000C92BC093EE050E94D12080E00E945A34A7
:102CD0008FC180E00E943034CC2309F489C18C2F4D
:102CE0000E94CA200E94D12083C1112381F00023B9
:102CF000A9F1013009F07CC19091C4058C2F892382
:102D0000C81709F475C1C92BC093C40571C101115D
:102D10006FC18C2F0E941F348091C4059C2F982373
:102D200029F09C2F909589238093C405209103045A
:102D30008C2F822309F45CC1C0952C2320930304BB
:102D400057C1112321F0023008F052C107C0011110
:102D50004FC115C0112331F0011138C18C2F0E94D1
:102D6000263446C1002359F0D93309F03EC18FEF14
:102D700097EEE3E081509040E040E1F734C18C2FC2
:102D80000E941F3435C18C2F86958695837019F06B
:102D9000813061F02DC1112321F08D2F9C2F937074
:102DA00002C080E090E00E94241E28C1112321F07F
:102DB0008D2F9C2F937002C080E090E00E94FF1D39
:102DC0001DC18C2F837009F041C0111115C12D2F29
:102DD000229526952770220F220F8D2F8F7090E05D
:102DE000022E02C0880F991F0A94E2F7D4FF0BC08D
:102DF0004FE050E002C0440F551F2A95E2F79A01B8
:102E00002095309502C020E030E0C695C695C3708D
:102E1000C23099F068F44091DF035091E003C13073
:102E200029F0822B932B8423952304C0842B952B8C
:102E3000822B932B0E94D533DFC0822B932B2091C2
:102E4000DF033091E00382279327F4CF112319F099
:102E50008C2F817001C08695882309F4CDC02D2F59
:102E6000229526952770220F220F8D2F8F7090E0CC
:102E7000022E02C0880F991F0A94E2F7D4FF0BC0FC
:102E80004FE050E002C0440F551F2A95E2F79A0127
:102E90002095309502C020E030E0C695C695C370FD
:102EA000C23079F0B8F44091730650917406C13085
:102EB00029F0822B932B842395230EC0842B952BF2
:102EC00009C0822B932B20917306309174068227C0
:102ED000932702C0822B932B0E94AC338DC0CF70FE
:102EE000112339F08C2F0E94C5338D2F0E94263478
:102EF00083C08D2F0E941F348C2F0E94B3337CC05F
:102F00008D2FF2EFCF1681F1FC1538F020EFC216AD
:102F100059F091EFC91619F155C0E3EFCE1659F1EA
:102F2000F4EFCF16C1F04EC0112389F0011160C03B
:102F3000CF7181E090E002C0880F991FCA95E2F737
:102F400020917306309174068227932721C00230A6
:102F500008F04EC0EDCF80917B0582FD1CC011238F
:102F600029F08C2F8F7122C01123D9F38C2F8F71F0
:102F70000E94B3333DC0112349F0CF7181E090E04E
:102F800002C0880F991FCA95E2F702C080E090E066
:102F90000E94AC332DC0112361F08C2F8F7198E00B
:102FA000899F9001112423602093C3050E94C5339B
:102FB0001FC081E00E9423210230D0F082E00E94F5
:102FC000232116C0112321F0002359F28D2F7ECE2C
:102FD000002361F2893349F4EFEFF7EE23E0E1508B
:102FE000F0402040E1F700C000008D2F0E943034F7
:102FF00088EF8B0D843010F40E94491EDD20A9F06B
:103000008091C30580FD11C0F701158286958695D4
:1030100086950E94C533C7010E94A9138091C305FC
:103020008695869586950E94B33320E0F70140810E
:10303000518162817381848195810E94AF2D48C046
:1030400085E327CDEC57FF4F0C94973942E351E3CA
:103050006CE371E32CC04CE351E362E371E327C0FE
:103060004EE151E368E271E322C048E251E36EE1D0
:1030700071E31DC044E051E361E171E318C041E137
:1030800051E364E071E313C04AEE50E367EF70E38D
:103090000EC047EF50E36AEE70E309C04EEC50E318
:1030A0006CED70E304C04CED50E36EEC70E30E94F5
:1030B000561EF3CC8DE0F6CB82E1F4CB8091020476
:1030C000811104C089E20E949A1DE5CC85E3FBCF03
:1030D000CDB7DEB7E9E00C94B53608958091F605DA
:1030E0000895A0E0B0E0E7E7F8E10C9498368CEBA7
:1030F000C82E84E0D82E98E2A92E91E0B92EE12CBA
:10310000F12CF60180818823C1F0C0E0D0E0A70156
:103110004C0F5D1F445D5B4F6C2F6C5DF501808132
:1031200003E010E020E130E0880F0E9495356096C2
:10313000C039D10561F7F6011082F4EACF0ED11C37
:1031400084EAE80EF11CEFEFAE1ABE0AF8E4EF16BF
:10315000F1E0FF06B1F6CDB7DEB7EAE00C94B43685
:10316000A4E0B0E0E6EBF8E10C949D3680339105E5
:1031700008F049C0122F042FF62EBC01660F771FEE
:10318000660F771F6C5A7E4F44E050E0CE010196E7
:103190000E942337898183702A8130E0682F70E094
:1031A00044EA849FC0011124845D9B4FFC01E20F1F
:1031B000F31FE0815B814C81EF110CC0FC01E50F36
:1031C000F11DE081E01306C0FC01E40FF11D8081D8
:1031D0008117C9F0E4EAE69FC001E79F900D112432
:1031E000845D9B4FFC01E20FF31FF082FC01E50FB1
:1031F000F11D0083FC01E40FF11D1083FC01E05779
:10320000FF4F21E020832496E5E00C94B936FF922D
:103210000F931F93CF93DF93182F062FF42EC0E048
:10322000D0E02F2D402F612FCE010E94B0182196A3
:10323000C033D105B1F7CDB7DEB7E5E00C94B936B0
:10324000A4E0B0E0E6E2F9E10C9498360E9418356B
:1032500010E04BE06DEF812F0E94473140E06AE0C3
:10326000812F0E9447318FE39CE90197F1F700C05D
:10327000000040E060E0812F0E94473140E061E0C3
:10328000812F0E94473140E066E0812F0E94473144
:1032900040E06DEF812F0E94473100E040E0602F59
:1032A000812F0E9447310F5F0231C1F740E0602F4C
:1032B000812F0E9447310F5F0432C1F740E0602F39
:1032C000812F0E9447310F5F043BC1F74BE06DEF48
:1032D000812F0E94473141E06AE0812F0E944731EF
:1032E00040E06DEF812F0E9447311F5F123009F0DF
:1032F000B0CF04E511E094E1C92E92E0D92E24EA82
:10330000A22EEE24E394F12CBB24B39444E050E0CD
:10331000B801CE0101960E9423374A813B812C815E
:1033200089818370542F569556955695A89EC00155
:103330001124845D9B4FFC01E50FF11DEF56FF4FFB
:103340004770B70102C0660F771F4A95E2F7AB01DD
:103350005081452B4083432F469546954695FC0169
:10336000E40FF11DEF56FF4F3770A70101C0440F66
:103370003A95EAF73081432B4083322F36953695C4
:103380003695FC01E30FF11DEF56FF4F2770A701A3
:1033900002C0440F551F2A95E2F79A013081232B72
:1033A0002083FC01ED55FF4FB0820C5F1F4FC0160C
:1033B000D10609F0ABCF8CE2C82E84E0D82EF12CD8
:1033C000560153EAA50EB11CF5018081882399F0BE
:1033D00000E010E0F801EF56FF4FEC0DFD1D4081BD
:1033E000602F8F2D0E9447310F5F1F4F0231110553
:1033F00089F7F5011082F394F4EACF0ED11C42E074
:10340000F412DECF2496EAE00C94B4361F920F92A9
:103410000FB60F9211242F933F934F935F936F93A7
:103420007F938F939F93AF93BF93CF93DF93EF934C
:10343000FF93C091E900CF708091EC00D82FD1703C
:1034400080FDD0E81092E9008091F000877F8093A2
:10345000F00078940E9461261092E9008091F000BB
:1034600088608093F000CD2BCF70C093E900FF916E
:10347000EF91DF91CF91BF91AF919F918F917F910C
:103480006F915F914F913F912F910F900FBE0F90D1
:103490001F901895E8EDF0E080818E7F8083109278
:1034A000E2001092DA001092E100A0EEB0E08C9100
:1034B00081608C9380818F77808319BCA7EDB0E009
:1034C0008C918E7F8C9380818F7E8083109281057A
:1034D00008952091E4003091E50095E64091EC00DC
:1034E000842F817040FF23C08091E80080FD1DC0C3
:1034F00080910106882399F0853099F08091EB0046
:1035000085FD11C04091E4005091E5002417350776
:1035100029F3915011F09A01E1CF84E0089582E0FF
:10352000089583E0089581E0089580E00895409132
:10353000E80042FFDDCF08958091030687FF11C0A8
:103540008091E80082FD05C0809101068111F8CFCD
:1035500011C08091E8008B770BC080910106882311
:1035600049F08091E80080FFF8CF8091E8008E77E5
:103570008093E8000895982F973068F59093E900BC
:10358000981739F07091EC002091ED005091F00007
:1035900003C0242F762F50E021FD02C09F5FECCFA7
:1035A0003091EB003E7F3093EB003091ED003D7F9A
:1035B0003093ED003091EB0031603093EB0070936D
:1035C000EC002093ED005093F0002091EE0027FDD9
:1035D000E5CF80E008958F708093E90081E0089541
:1035E000A0E0B0E0E6EFFAE10C949A36C8EDD0E046
:1035F00088818F7E8883E7EDF0E080818160808321
:1036000084E082BF81E08093810588818E7F8883FA
:1036100002EE10E0F80110821092DA0081EEC82E5E
:10362000D12CF601108288818F7788838881806809
:10363000888388818F7D888319BC1092010610923F
:103640000206109200061092FF0590EEE92EF12C72
:10365000F70180818B7F808388818160888342E04D
:1036600060E080E00E94BB1AF60180818E7F80833B
:10367000F801808181608083808188608083F70188
:1036800080818E7F8083888180618883CDB7DEB71B
:10369000E8E00C94B6361F920F920FB60F921124E9
:1036A0002F933F934F935F936F937F938F939F934A
:1036B000AF93BF93EF93FF938091E10082FF09C026
:1036C0008091E20082FF05C08091E1008B7F8093B2
:1036D000E1008091DA0080FF2AC08091D80080FF4D
:1036E00026C08091DA008E7F8093DA008091D90025
:1036F00080FF18C080E189BD82E189BD09B400FE68
:10370000FDCF81E0809301068091810581110FC07A
:103710000E944A1A0E94F01A8091E200846080930D
:10372000E20005C019BC109201061092810580913B
:10373000E10080FF17C08091E20080FF13C08091FC
:10374000E2008E7F8093E2008091E20080618093AE
:10375000E2008091D80080628093D80019BC85E097
:10376000809301068091E10084FF30C08091E200E7
:1037700084FF2CC080E189BD82E189BD09B400FECF
:10378000FDCF8091D8008F7D8093D8008091E1009B
:103790008F7E8093E1008091E2008F7E8093E20033
:1037A0008091E20081608093E2008091020688238C
:1037B00011F084E007C08091E30087FD02C081E042
:1037C00001C083E080930106809101068091E100B1
:1037D00083FF27C08091E20083FF23C08091E10036
:1037E000877F8093E10082E08093010610920206B9
:1037F0008091E1008E7F8093E1008091E2008E7FD6
:103800008093E2008091E20080618093E20042E0D8
:1038100060E080E00E94BB1A8091F0008860809395
:10382000F000FF91EF91BF91AF919F918F917F91A8
:103830006F915F914F913F912F910F900FBE0F901D
:103840001F9018952091090630910A062617370710
:1038500048F06115710539F42091E8002E77209326
:10386000E80001C0B901FC0120E06115710579F1A2
:10387000809101068823F1F18530F1F18091E80013
:1038800083FD3CC08091E80082FD2EC08091E8005D
:1038900080FFEBCF2091F3008091F20090E0922B1B
:1038A0006115710551F08830910538F4219120930C
:1038B000F100615071090196F3CF21E0089709F0FA
:1038C00020E08091E8008E778093E800CECF211130
:1038D000CFCF0AC080910106882361F0853061F066
:1038E0008091E80083FD0AC08091E80082FFF2CF5A
:1038F00080E0089582E0089583E0089581E00895CE
:103900000F931F93CF93DF938B01EA0190910106F0
:103910009430A9F58F708093E9008FEF9091E800C3
:10392000815095FD06C095ED9A95F1F70000811143
:10393000F5CF8091E80085FF22C00E94691A8111AD
:1039400015C0209789F08091E80085FD06C0809120
:10395000E8008E778093E800F0CFF80181918F0125
:103960008093F1002197EDCF90E001C0982F8091D6
:10397000E8008E778093E80081E0911101C080E03B
:10398000DF91CF911F910F91089543E050E0BC016A
:1039900084E00E94801C089540E250E0BC0184E075
:1039A0000E94801C0895CF93DF93EC0148E050E023
:1039B000BC0181E00E94801C88E0FE01A7EFB5E019
:1039C00001900D928A95E1F7DF91CF9108959AE0E9
:1039D00088E10FB6F894A895809360000FBE90938D
:1039E0006000FFCFF89481E08093E00080E2809354
:1039F000D800E9ECF0E010828FE19EE40197F1F746
:103A000000C000001DBA109268001CBC10BE1FBA96
:103A100010927A0010926E0010926F001092710056
:103A2000109272001082ECEBF0E0108214B817B81C
:103A30001AB81DB810BA108215B818B81BB81EB83D
:103A400011BA0C94003F089578941F920F920FB60C
:103A50000F9211248F939F93AF93BF9380917D0515
:103A600090917E05A0917F05B09180050196A11DE2
:103A7000B11D80937D0590937E05A0937F05B09343
:103A80008005BF91AF919F918F910F900FBE0F90C6
:103A90001F9018959C014FB7F89480917D059091E7
:103AA0007E05A0917F05B09180054FBF821B930BCF
:103AB00008952FB7F89460917D0570917E058091EF
:103AC0007F05909180052FBF08952FB7F8948091BE
:103AD0007D0590917E05A0917F05B09180052FBF57
:103AE00008951F920F920FB60F9211248F939F93F8
:103AF000AF93BF9380917C05811113C080917D05A8
:103B000090917E05A0917F05B09180054196A11D01
:103B1000B11D80937D0590937E05A0937F05B093A2
:103B20008005BF91AF919F918F910F900FBE0F9025
:103B30001F90189590911001992321F090917A058A
:103B400097FD03C0E4E0F4E01DC0E82FE695E6959C
:103B5000E695EE31E0F4F0E0E45FFB4F877021E0A2
:103B600030E0A90102C0440F551F8A95E2F7CA014F
:103B700080959281892382830895319654E0EA30BA
:103B8000F50729F092818913F8CF1282F6CF0895B4
:103B9000909110019923D1F090917A0597FF16C06A
:103BA000E82FE695E695E695EE3140F5F0E0E45F26
:103BB000FB4F877021E030E0A90102C0440F551F80
:103BC0008A95E2F7CA019281892B16C0A6E0B4E07B
:103BD000EFEF90E02D91821789F0EF3F19F421115A
:103BE00001C0E92F9F5F9630A9F7EF3F39F00E2E05
:103BF000000CFF0BEC5FFB4F828308950895A3E058
:103C0000B0E0E5E0FEE10C94A0362091780530911B
:103C1000790528173907A1F09093790580937805E5
:103C2000E0917605F0917705309751F024E02983F3
:103C30009B838A830084F185E02DCE01019609954E
:103C40002396E2E00C94BC36A3E0B0E0EAE2FEE1A9
:103C50000C94A0362091740530917505281739070A
:103C6000A1F09093750580937405E0917605F0912D
:103C70007705309751F023E029839B838A83008462
:103C8000F185E02DCE01019609952396E2E00C9492
:103C9000BC36E0917605F0917705309729F00190D8
:103CA000F081E02D0995089580E00895882311F0B2
:103CB000FA0101C0FB010995089580E008959091F3
:103CC0007A0592FF10C041E0282F2471243009F0BA
:103CD00040E031E0282F2871283009F030E0431708
:103CE00011F02CE0822793FF10C041E0282F2471AF
:103CF000243109F040E031E0282F2871283109F003
:103D000030E0431711F02CE0822730917B0530FF23
:103D100010C051E0282F2171213009F050E041E01E
:103D2000282F2871283009F040E0541711F029E0BD
:103D3000822731FF10C041E0282F2171213109F085
:103D400040E031E0282F2871283109F030E0431796
:103D500011F029E0822794FD877E0895823891052D
:103D600069F1B0F48133910509F475C048F48932E2
:103D7000910509F467C08A32910509F471C008956C
:103D80008533910509F459C089339105B9F0089537
:103D9000833E910589F138F4803E9105D1F0823E51
:103DA000910529F10895863E9105C9F1873E910557
:103DB000D9F1843E910509F06CC027C020917A05A5
:103DC00020FD57C021FD55C020917B0523FD5BC020
:103DD000089580917A0580FD48C080917B0580FF21
:103DE00048C080917A0584FD46C083EE51C0809121
:103DF0007A0582FF3CC0F5CF80917A0582FD37C0FD
:103E000080917B0580FD35C0ECCF80917B0581FFE3
:103E100036C080917A0584FD2EC087EE39C080912E
:103E20007A0583FF2AC0F5CF80917A0583FD25C0EE
:103E300080917B0581FD23C0ECCF80917A0585FDC3
:103E400022C01FC080917A0585FD1BC080917B0533
:103E500083FF19C00AC080917A0586FD16C017C07D
:103E600080917A0586FD13C010C089E311C082EEEF
:103E70000FC080EE0DC080E00BC086EE09C084EE5E
:103E800007C085E305C089E203C08AE201C081E37F
:103E900090E008959091EE058091C505892B909151
:103EA000C4059923E1F0892B90911001992341F0E9
:103EB00090917A0597FF04C09EE12EE034E003C0A4
:103EC00096E026E034E0F90120E0915028F03191AD
:103ED0003323D9F32F5FF9CF21111092C405089530
:103EE0002091C2059091890557E02917A9F030E08B
:103EF000529FF001539FF00D1124E657FA4F718144
:103F0000761306C07081781303C07581741306C0E0
:103F10002F5F3F4F2770E9CF80E0089581E008953B
:103F20007E30B0F46630A0F48830A0F494E5899F28
:103F3000F001112486E0789FE00DF11D1124E60FB9
:103F4000F11DEE0FFF1FEC5EFD4F859194910895DA
:103F500080E001C081E090E008951F93CF93DF934C
:103F60000E94AE1EEC01C11580E5D807E8F5C11529
:103F700090E4D90708F0A8C0C03ED10530F5CD3C8B
:103F8000D10508F094C0C83AD10578F4C53AD105F6
:103F900008F083C0C130D10509F47CC008F4F2C038
:103FA000C430D10508F0F1C0EDC0C33CD10508F024
:103FB000E9C0C85AD0E0CC0FDD1FC35DDE4F0990C9
:103FC000D881C02DCE019464E1C0C11580E2D8072C
:103FD00008F0CBC0C11591E0D90708F06BC0C83E0E
:103FE000D10508F4D2C0CEC0C03682E5D80728F586
:103FF000C03492E5D90708F079C0C03282E5D8070D
:1040000008F06CC0C11592E5D90708F481C04C2FA7
:104010004695469580E2489FA0011124C37021E097
:1040200030E0C90102C0880F991FCA95E2F7EA0182
:10403000C82BD92BCE019D68A9C0C03A82E5D8070C
:10404000B8F48C2F8F71C03892E5D90708F07BC087
:104050008695869590E2899F90011124C37081E036
:1040600090E002C0880F991FCA95E2F79A6868C06D
:10407000C03C82E5D80708F46DC0C03E92E5D90780
:1040800008F080C0CF71DD27DC2FCC27CE01806FF8
:10409000906A7CC081E090E079C0C55AD0E0C65DEE
:1040A000DE4F8881C82FD0E0CE0190646FC0CE0172
:1040B00090656CC08D2F0E945F1E182FCE0199272E
:1040C0000E94AE1E1F715CC0CE0199270E94AE1ED9
:1040D000CC27DF70D06A8C2B9D2B58C0CF71D0E0DD
:1040E000DC2FCC27CE01816F906A50C08C2F8F714E
:1040F0008695869590E2899F90011124C37081E096
:1041000090E002C0880F991FCA95E2F79C6818C01A
:104110008C2F8F710E945F1E95E0D695C7959A955A
:10412000E1F7CF70D0E0DC2FCC27282F30E084FFE0
:1041300005C084E0220F331F8A95E1F7D069CE01D4
:10414000822B932B23C090E0D82FCC27CE01846FF5
:10415000906A1CC08C2F8F710E945F1E8F7190E03F
:10416000D82FCC27CE01906211C08D2F8F710E9465
:104170005F1E182FCE0199270E94AE1E1F719062FC
:10418000912B04C080E090E001C0CE01DF91CF917F
:104190001F91089580959091EE0589238093EE05F7
:1041A000089580911001882351F180917A0587FF4D
:1041B00026C00E944A1F80930D0440E250E066EC46
:1041C00075E08CE094E00E949D39892BD9F180E262
:1041D000ECE0F4E0A6ECB5E001900D928A95E1F7F1
:1041E000E0917605F0917705309761F186E0809354
:1041F0000C040480F581E02D8CE094E022C00E9444
:104200004A1F8093040448E050E066EE75E084E0C5
:1042100094E00E949D39892BA9F088E0E4E0F4E065
:10422000A6EEB5E001900D928A95E1F7E091760552
:10423000F0917705309731F00280F381E02D84E032
:1042400094E0099508959091C30580958923809302
:10425000C305282F277069F4981759F090917B05B2
:1042600092FF07C08695869586950E94B33310927B
:10427000C305089590917B0592FB222720F928170A
:1042800079F080FB92F990937B0560917A057091AB
:104290007B0584E090E00E947E3782E00E9423212B
:1042A00008958091C20590918905891719F08F5F53
:1042B0008770FBCF0895CF93DF9380918805829517
:1042C0008F7009F04EC080918705882309F449C09A
:1042D0008091C205409189055091830560918205C6
:1042E000C0918405D091850577E08417D1F190E0E5
:1042F000789FF001799FF00D1124DF01A657BA4F86
:1043000014962C911497222349F111962C91119710
:10431000251324C02C91261321C015962C91159796
:1043200021111CC012962D913C9113972C1B3D0B13
:10433000283C310598F4809188058F7080618093C6
:104340008805E057FA4F80818F708061808382E812
:1043500095E00E94A9130E94512103C00196877025
:10436000C4CFDF91CF910895A4E1B0E0EAEBF1E290
:104370000C9496368C0186E0F801DE011F960190C0
:104380000D928A95E1F7F8018481E58092E8892E03
:1043900095E0992E90918605911120C0882309F40B
:1043A00063C1EE2009F442C0C8010E94DA33F82E3E
:1043B0008823E1F187E0F801D40101900D928A95FC
:1043C000E1F780918605813031F4809182059091EA
:1043D00083050E9438330E945B2148C1F801D080D8
:1043E000C180A280B380F090870520918405309130
:1043F0008505FF2009F4E7C0A501421B530B483C8B
:10440000510508F09DC0882309F430C180918805CA
:10441000282F207F90918305222361F09C1509F4B9
:1044200060C0C8010E94DA33811163C0C8010E94D4
:10443000A9131AC19C1113C0909182059D110FC040
:10444000E1100DC08F7080618093880582E895E04F
:104450000E94A91380918805F801868303C1E110A9
:104460003AC040E06C2D8D2D0E94701F40E06C2DF5
:104470008D2D0E94701FE82E8111F4C0DF86C88A3E
:104480008F8598890E943833292F22952F702430E8
:1044900020F49F70223028F009C02A50223080F08A
:1044A00014C0992349F0811107C013C0992321F04A
:1044B000F8019681907F69F0805E883030F409C001
:1044C000803F38F0815F833020F0C8010E94A9133B
:1044D000EF2CFE2CCBC080918805816080938805ED
:1044E000C1C0909182059D119CCFE1109ACFF80137
:1044F00098C0EE2009F49ACF20918805822F8295EA
:104500008F7090E002978CF08091820590918305E6
:1045100099878887BB86AA86809186058C871D86A9
:104520002E87CE0108960E94A91387E0F801A2E821
:10453000B5E001900D928A95E1F70E945B2194C04D
:1045400090918805292F207F51F482E895E00E9400
:10455000A91387E0F40111928A95E9F783C08823B3
:1045600009F484C0809183058C110CC08091820570
:104570008D1108C0E11006C0F8019683C8010E94A1
:10458000A9136AC0C8010E94DA33882309F44ECF08
:10459000EE2009F44BCF20918805822F82958F70F1
:1045A00090E0029714F280918205909183059A839E
:1045B0008983BC82AB82809186058D831E822F8386
:1045C000CE010196B0CFA21AB30AF8ECAF16B1042F
:1045D00008F042C0882309F447C0FE2CEE2009F4FD
:1045E00025CF809183058C1129C0809182058D1182
:1045F00025C09091880590FD18C0892F82958F70F5
:10460000282F30E02115310581F0F80196832F30F5
:10461000310541F08F5F982F9295907F86818F7042
:10462000892B8683C8010E94A91387E0F801A2E8BC
:10463000B5E001900D928A95E1F718C0C8010E947B
:10464000DA33811172CF809188058160809388056B
:10465000C8010E94A9130AC087E0F40111928A954B
:10466000E9F704C0F12C02C0FF24F3948F2D649667
:10467000ECE00C94B236A6E0B0E0E1E4F3E20C9496
:104680009E360E94651D8C018091EF059091F0058A
:104690000817190781F019821A820E94651D682F78
:1046A00049815A81792F80E090E00E94D42D1093A7
:1046B000F0050093EF052696E4E00C94BA36EF92ED
:1046C000FF920F931F93CF93DF9380910E019091F0
:1046D0000F01892BD9F08091F1058F5F8093F1054F
:1046E000811114C00E94893090E090930F01809353
:1046F0000E01892B59F42FEF83EC99E02150804073
:104700009040E1F700C000000E94E71C01ED13E0BB
:10471000C0E0D0E087E0E82EED0E8D2F0E94B22F92
:104720008E2D0E94B22F8D2F0E9413308F73F801AF
:104730009081891721F08083FF24F39401C0F12C2C
:104740008E2D0E9413308F73F8019781891719F00D
:10475000878381E001C080E0F82ACF290E94FE2FE4
:10476000DF5F0F5F1F4FD730A9F6CC2359F081E0F0
:104770008093F4050E94651D9093F3058093F205E4
:10478000C0E022C08091F4058823F1F08091F20509
:104790009091F3050E944A1D4497B0F04EE050E01E
:1047A00061ED73E081EE93E00E949D39892B51F019
:1047B0008EE0E1EDF3E0A1EEB3E001900D928A9579
:1047C000E1F7C1E01092F4058C2FCDB7DEB7E6E03B
:1047D0000C94B836909139069370A1F0811102C003
:1047E000946007C08E3210F0946B03C0880F880F5E
:1047F000982B9093390610921401809138068160AD
:10480000809338060895A7E0B0E0E9E0F4E20C9464
:104810009036282E4B01809111010E94C031392E13
:104820008F8320910F0629839F81931508F079C00B
:104830003F81632E712CF301EA5DFD4F90818091E1
:104840001201892309F469C040903A0650903B0652
:10485000122D1E82C301880F991FDC01AA53BE4F7F
:10486000BB83AA83C301880F991FFC01E953FE4F44
:10487000FD83EC83F9811F1708F03EC0E12EF12C77
:10488000AA81BB81CC90D12CF701E15FF94F8181E6
:10489000C81AD108AC81BD81AC90B12C8185A81A11
:1048A000B108CC9C9001CD9C300D300D1124AA9CF8
:1048B000C001AB9C900D900D1124820F931F0E949C
:1048C000652C082F60913D0621E0620F08F46FEF20
:1048D000F701EE0FFF1FE15FF94F818D928D0E946E
:1048E000BF2C7C019501A601B2018E81F4010995CE
:1048F0002B018E831F5FBECF20913C068E81382F07
:10490000329F312D1124832FB2010E94DC2C462FBF
:10491000282F672FC3010E94082C8F818F5F8F8300
:1049200083CF81E0AFE2A31508F480E02796E2E1AF
:104930000C94AC36A0E0B0E0E0EAF4E20C949A36D5
:10494000EC01809111010E94C031092F182F209194
:104950003D0631E0230F08F42FEF30E040E050E057
:104960006FEF7FEF80E090E00E94843779011017AD
:1049700008F041C0C12ED12CF601EA5DFD4F9081B7
:10498000809112018923A9F190910F06915097FD12
:1049900015C0492F092E000C550BFA01E15FF94FA4
:1049A00081891813F3CF440F551FFA01E15FF94FC6
:1049B000218D328D2E153F0548F701C0970160917A
:1049C0003D0641E0640F08F46FEFC9010E94BF2C5F
:1049D000AC0160913A0670913B0680913C06FE0165
:1049E00009950E94DC2C462F282F672FC6010E94B4
:1049F000082C1F5FBCCF81E0003308F080E0CDB70A
:104A0000DEB7E8E00C94B636A0E0B0E0EAE0F5E20C
:104A10000C949B368C01809111010E94C031EC01F5
:104A200060913D066695669521E0620F08F46FEF90
:104A300080910B0690910C060E94BF2CD82ECD17AA
:104A4000F0F4EC2EF12CF701EA5DFD4F908180919E
:104A50001201892391F060913A0670913B06809192
:104A60003C062D2D4C2FF80109950E94DC2C462F79
:104A7000282F672FC7010E94082CCF5FE0CF81E06D
:104A8000D03308F080E0CDB7DEB7E7E00C94B7365E
:104A9000A0E0B0E0EEE4F5E20C9497366C01809172
:104AA00011010E94C031192FC82F60913D066695F3
:104AB000669580910B0690910C060E94BF2CD82F12
:104AC00080E48D0F0E940B2C90E8F92EF80E8D2FAC
:104AD0000E940B2C20E8922E980EC11700F5AC2EE8
:104AE000B12CF501EA5DFD4F90818091120189237F
:104AF000A1F060913A0670913B0680913C06ED2E44
:104B00000C2F292D4F2DF60109950E94DC2C462FE4
:104B1000282F672FC5010E94082CCF5FDECF81E0D0
:104B2000103308F080E0CDB7DEB7EBE00C94B3367D
:104B3000A0E0B0E0EEE9F5E20C9495365C018091DE
:104B400011010E94C031F92E182F60913D06669523
:104B500080910B0690910C060E94BF2C782E1F1599
:104B600008F043C0812E912CF401EA5DFD4F908145
:104B7000809112018923B9F1F401EE0FFF1FEA536E
:104B8000FE4FC081D0E0C057D109F401EE0FFF1FE6
:104B9000E953FE4FC080D12C80E2C81AD108CC9FC7
:104BA0009001CD9F300D300D1124CC9CC001CD9CC7
:104BB000900D900D1124820F931F0E94652C082FD9
:104BC00060913A0670913B0680913C06E72C960175
:104BD000AE01F50109950E94DC2C462F282F672F86
:104BE000C4010E94082C1F5FBACF81E0FFE2FF15CD
:104BF00008F480E0CDB7DEB7EDE00C94B136A0E06C
:104C0000B0E0E5E0F6E20C949A367C018091110167
:104C10000E94C031D92E182F60913D066695809173
:104C20000B0690910C060E94BF2CC82E1D1578F51E
:104C3000C12FD0E0FE01EA5DFD4F9081809112010D
:104C4000892319F1FE01EE0FFF1FE953FE4F20816A
:104C500030E020523109FE01EE0FFF1FEA53FE4FF4
:104C6000408150E04057510960913A0670913B06EF
:104C700080913C060C2DF70109950E94DC2C462FF3
:104C8000282F672FCE010E94082C1F5FCFCF81E015
:104C9000FFE2FD1508F480E0CDB7DEB7E8E00C9444
:104CA000B63690913906937059F080933A06609326
:104CB0003B0640933C06809138068160809338061D
:104CC0000895AAE2B0E0E7E6F6E20C949F36E3E04E
:104CD000F6E08BE096E02091F10021938E179F077C
:104CE000D1F780910406833009F463C030F4813039
:104CF00071F0823009F49DC0B4C08A3009F489C0D3
:104D00008B3009F46EC0893009F0ABC020C08091AF
:104D10000306813A09F0A5C08091E800877F80935F
:104D2000E8008091070690910806892B21F468E03D
:104D300087EF95E003C060E080E090E070E00E94C3
:104D4000221C8091E8008B778093E8008AC08091D4
:104D50000306813209F085C080910706909108060C
:104D6000009719F0029709F07CC08091E800877FD6
:104D70008093E8008091E80082FD05C080910106E3
:104D80008111F8CF6EC02091F3008091F20090E085
:104D9000922B029731F48091F100813011F086302E
:104DA00021F48091F1008093F6058091E8008B77E3
:104DB00054C080910306813A09F053C080910706E0
:104DC00090910806892B09F04CC08091E800877FFC
:104DD0008093E8008091E80080FFFCCF8091100173
:104DE00037C0809103068132E1F5809107069091EA
:104DF0000806892BB1F58091E800877F8093E80051
:104E00000E949C1A80910506809310010E94FD3338
:104E100028C080910306813221F58091E800877FC8
:104E20008093E8000E949C1A809106068093F50505
:104E300018C080910306813AA1F48091E800877F31
:104E40008093E8008091E80080FFFCCF8091F50519
:104E50008093F1008091E8008E778093E8000E94B3
:104E60009C1A8091E80083FFEBC18091030690912A
:104E70000406492F50E04A30510508F0E1C1FA011B
:104E8000E756FF4F0C949739803821F0823809F0AB
:104E9000D7C108C08091FF0590910006992389F041
:104EA00082600FC0809107068F70873008F0C8C1FC
:104EB0008093E9008091EB0085FB882780F91092B0
:104EC000E9009091E800977F9093E8008093F100CB
:104ED0001092F1007CC1282F2D7F09F0B1C18823E9
:104EE00019F0823061F0ACC180910506813009F083
:104EF000A7C1933009F080E0809300062EC0809116
:104F0000050681112AC0809107068F702FEF280FA8
:104F1000263008F095C18093E9002091EB0020FF36
:104F20001CC0933021F48091EB00806214C09091FA
:104F3000EB0090619093EB0021E030E0A90102C00A
:104F4000440F551F8A95E2F74093EA001092EA0059
:104F50008091EB0088608093EB001092E9008091D3
:104F6000E800877F8093E8000E949C1A69C1811144
:104F700067C1109105061F778091E3008078812B2F
:104F80008093E3008091E800877F8093E8000E948F
:104F90009C1A8091E80080FFFCCF8091E30080683C
:104FA0008093E300111102C082E001C083E080938E
:104FB000010646C18058823008F042C120910506A2
:104FC000309106062C3D53E0350779F583E08A835E
:104FD0008AE289834FB7F894DE01139620E03EE021
:104FE00051E2E32FF0E050935700E49120FF03C01B
:104FF000E295EF703F5FEF708E2F90E0EA3010F097
:10500000C79601C0C0968D939D932F5F243149F7B9
:105010004FBF8091E800877F8093E8006AE270E0EC
:10502000CE0101960E94221CC0C08091070690917B
:105030000806432F552743305105B1F068F441303D
:10504000510509F40CC14230510509F0F9C08BE556
:1050500090E0E7E2F8E057C04132510589F1423271
:10506000510509F43CC0ECC0C90199278130910574
:10507000B9F070F082309105D9F0039709F0E0C0E3
:10508000E4E9F8E0E4918E2F90E0E4E9F8E038C03C
:10509000E0EFF8E0E4918E2F90E0E0EFF8E030C030
:1050A000E6ECF8E0E4918E2F90E0E6ECF8E028C022
:1050B000EEEAF8E0E4918E2F90E0EEEAF8E020C00E
:1050C0008330910508F0BCC0880F991FFC01E4599A
:1050D000FE4F0190F081E02D89E090E014C0833014
:1050E000910508F0ADC0FC01EE0FFF1FEA59FE4F1D
:1050F0000190F081E02DDC01AD59BE4F8C9190E024
:10510000009709F49DC02091E800277F2093E800D4
:105110002091090630910A062817390708F4C901B9
:1051200040E0009789F120910106222309F43DC057
:105130002530D9F12091E80023FD37C02091E80007
:1051400022FD2FC02091E80020FFEBCF4091F3001B
:105150002091F20030E0342B009759F028303105CF
:1051600040F444914093F100319601972F5F3F4FF7
:10517000F3CF41E02830310509F040E02091E8000C
:105180002E772093E800CDCF4111CDCF0AC080917A
:105190000106882351F0853041F08091E80083FDBD
:1051A00004C08091E80082FFF2CF8091E8008B7705
:1051B0008093E80045C0803809F042C08091E80043
:1051C000877F8093E800809102068093F1008091B0
:1051D000E8008E77C7CE811133C08091050690918B
:1051E00006069927029764F58091E800877F8093EF
:1051F000E80010910506109302060E949C1A1111F6
:1052000006C08091E30087FD02C081E001C084E018
:105210008093010642E061EC81E00E94BB1A42E209
:1052200061EC84E00E94BB1A42E261EC82E00E94E1
:10523000BB1A42E260EC83E00E94BB1A8091010637
:105240008091E80083FF10C08091E800877F809301
:10525000E8008091EB0080628093EB0005C082E162
:1052600090E0E2E8F8E04FCFAA96E3E00C94BB367A
:10527000EF92FF920F939701201B31092F3F3105C9
:1052800019F010F02FEF30E02095382F320F08F48E
:105290003FEF832F0F91FF90EF900895EF92FF92D1
:1052A0000F939701201B31092F3F310519F010F0A2
:1052B0002FEF30E0322F3095482F430F08F44FEF97
:1052C000842F620F0F91FF90EF900895EF92FF925D
:1052D0000F93972F093438F4B701601B71096F3FA2
:1052E000710519F010F06FEF70E0485F5F4F4131CA
:1052F000510540F0A901485F5F4F4131510510F061
:105300006FEF70E06095482F460F08F44FEF842F41
:1053100037FF02C02D5F3F4F35952795359527956F
:1053200060913A06620F792F0F91FF90EF900895E8
:10533000EF92FF920F93E00EF11CF90137FF03C0CB
:10534000F195E195F10924E0EE0FFF1F2A95E1F7B1
:10535000EF3FF10519F014F0EFEFF0E09A0157FF7D
:1053600003C031952195310994E0220F331F9A959E
:10537000E1F72E173F070CF4F901EE0DFF1DEF3F8B
:10538000F10519F010F0EFEFF0E02E2F2095382FF7
:10539000320F08F43FEF832F0F91FF90EF900895A5
:1053A000EF92FF920F93970195E0099F200D311D19
:1053B00011242F3F310519F010F02FEF30E0209528
:1053C000382F320F08F43FEF832F0F91FF90EF90AB
:1053D0000895409520E4429F412D1124640F0895C3
:1053E0004095282F429F412D1124842F0895E42FAA
:1053F000F0E0EE0FFF1FEA53FE4F9081921B97FDE6
:105400009195292F38E1239F212D1124620F0895B2
:105410000F931F9310E0F801EE0FFF1FEA53FE4FAA
:105420009081905797FD9195000F111FF801E95356
:10543000FE4FE081F0E0B097DF01AA0FBB1F8D01A6
:105440000E0F1F1F2003D001219FB00D1124E8E390
:10545000F0E0E91BF10997FDF3959F01220F331F3F
:1054600089010E0F1F1F40039001419F300D112431
:105470002A0F3B1F37FF02C021583F4F220F232F17
:10548000221F330B620F1F910F9108950F931F93EB
:10549000522F10E0F801EE0FFF1FE953FE4FE0819D
:1054A000F0E0B097EE0FFF1F9F015203D001539F12
:1054B000B00D1124000F111FF801EA53FE4F0081B7
:1054C00010E000571109000F111F40039001419F88
:1054D000300D11242A0F3B1F37FF02C021583F4FC8
:1054E000220F232F221F330B620F1F910F9108955C
:1054F0000F931F93522F10E0F801EE0FFF1FE95397
:10550000FE4FE081F0E0B0979F015203D001539F1E
:10551000B00D1124000F111FF801EA53FE4F008156
:1055200010E00057110940039001419F300D1124F4
:105530002A0F3B1F37FF02C021583F4F220F232F56
:10554000221F330B620F1F910F910895EF920F935B
:105550001F9393E0099F80011124159507956E2DE7
:10556000600F1F910F91EF900895A22F50E0FA0164
:10557000EE0FFF1FE953FE4F9081905297FD9195DA
:10558000440F551FFA01EA53FE4F3081232F30E0BC
:105590002A1B3109290F311D97FD3A95620F089595
:1055A000E42FF0E0EE0FFF1FE953FE4F6081621B16
:1055B0000895E42FF0E0EE0FFF1FEA53FE4F6081E5
:1055C000621B0895622F0895E42FF0E0EE0FFF1F95
:1055D000EA53FE4F408134EE439F412D1124E82FC2
:1055E000F0E050E0445E5F4FDA01A21BB1099D017B
:1055F000B7FF03C031952195310993E0220F331F86
:105600009A95E1F7AF01421B530B9A0157FF02C075
:1056100020E030E0582F259F212D1124822F08955E
:10562000E42FF0E0EE0FFF1FEA53FE4F408134EE0F
:10563000439F412D1124E72FF0E050E0445E5F4F7F
:10564000DA01A21BB1099D01B7FF03C03195219575
:10565000310993E0220F331F9A95E1F7AF01421B06
:10566000530B9A0157FF02C020E030E0279F212D05
:105670001124722F0895FC019B01009721F477FFFC
:105680002BC080E80895AC0197FF04C0442755273C
:10569000481B590BB901640F751F37FD0CC0241B43
:1056A000350BC901A5E0880F991FAA95E1F70E9463
:1056B000833980E20CC0CB0165E0880F991F6A95A1
:1056C000E1F7BA01621B730B0E94833980E6861BE7
:1056D000F7FF03C08195089580E00895EF920F933E
:1056E000CF93DF93D72FC82FC9010E19BA010E949B
:1056F0003B2B602F681B7D2F8C2FDF91CF910F915B
:10570000EF9008950F93CF93DF93D72FC82FC90140
:10571000BA010E943B2B682F600F7D2F8C2FDF91E9
:10572000CF910F910895EF920F931F93CF93DF9333
:10573000D62FC72F182FC9010E19010FBA010E94C9
:105740003B2B081B202F219F212D1124822F6D2FF1
:105750007C2FDF91CF911F910F91EF900895EF92E1
:105760000F931F93CF93DF93D62F172FC82FC90105
:105770000E19070FBA010E943B2B702F781B719FE7
:10578000712D11246D2F8C2FDF91CF911F910F91CF
:10579000EF900895FF920F931F93CF93DF93F62E10
:1057A000D72F182FC901C12FC01BBA010E943B2B54
:1057B000982F990F890FC81B2C2F219F212D112461
:1057C000822F6F2D7D2FCDB7DEB7E5E00C94B93673
:1057D000FF920F931F93CF93DF93F62E172FD82F9F
:1057E000C901C72FC01BBA010E943B2B982F990FEC
:1057F000890F7C2F781B719F712D11246F2D8D2F98
:10580000CDB7DEB7E5E00C94B9360E9407190895CC
:105810000E94B0180895482F982F46FD9095E92FC3
:10582000EF739F7046FD9F5FE295EF70EE0FF0E023
:10583000EA5AFD4F2181299F802D212D1124829527
:105840008F702295207F822B3081982F930F892F84
:1058500047FD8195805808950F931F93CF93DF9351
:10586000D62F072F182FC42F822F0E940B2CEC2F1E
:10587000F0E0EE0FFF1FEA53FE4F90819058890F22
:1058800087FD8195880F682F2CE0629F612D112480
:105890006D0F702F812FDF91CF911F910F91089580
:1058A000409115015091160125E038E0429FC0015A
:1058B000439F900D529F900D1124875E994C9093B9
:1058C000160180931501890F0895BC01823091055E
:1058D00008F40895613E8EE1780748F49B0195E055
:1058E000369527959A95E1F748E0420F01C04FEFB2
:1058F00091E0242F30E0290F311D35952795229F07
:10590000F001239FF00DF00D11246E177F0718F49E
:105910004FEF420F04C02F3F39F091E0920F49172B
:1059200040F78FEF890F08958FEF08950F93CF936E
:10593000DF93D72FC82F47FD4195E8E3F0E0CF0173
:10594000841B910947FD9395889FB001899F700D35
:10595000700D1124229FC001239F900D900D1124E2
:10596000860F971F0E94652C682F660F860F682F81
:10597000600F7D2F8C2FDF91CF910F91089520E044
:1059800030E0869F212D969F200D311D1124C901E5
:10599000089520913D0630E1230F08F42FEF60E1D8
:1059A000822F90E00E94BF2CBC0188EB9BE00E94FC
:1059B0007C3680E090E00895A0E0B0E0E2EEFCE20A
:1059C0000C949A36F62E472FE82FF0E0711106C09E
:1059D000EC50F74F8491782F682F73C0272F30E059
:1059E000EC50F74FE491FE2F0E2F10E056E0659F2C
:1059F000C0011124CFEFD0E0BE010E947C365BEAEB
:105A00005603C001579F900D11248F0D911D8F0DCE
:105A1000911D982F990F980F7E01E21AF30AE09ECC
:105A2000D001E19EB00DF09EB00D11248B2F499F47
:105A3000A0011124452F55277E01E41AF50AE09EA6
:105A4000A001E19E500DF09E500D11246E01C91A67
:105A5000D108C29E7001C39EF00CD29EF00C11249E
:105A60002F2D3327C21BD30BC09F9001C19F300D38
:105A7000D09F300D1124932F6230710591F048F4BE
:105A800061157105E1F061307105B9F49E2FE52FC4
:105A900016C06430710569F040F06630710579F028
:105AA0000CC09E2FEB2F832F0AC0EB2F8F2F952F2B
:105AB00006C09B2F8E2FE32F02C09B2F852F7E2F9A
:105AC000692F90E0CDB7DEB7E8E00C94B636292F09
:105AD00033272115310519F0C90148E001C040E024
